{
  "_format": "hh-sol-artifact-1",
  "contractName": "MyEpicGame",
  "sourceName": "contracts/MyEpicGame.sol",
  "abi": [
    {
      "inputs": [
        {
          "internalType": "uint64",
          "name": "subscriptionId",
          "type": "uint64"
        },
        {
          "internalType": "string[]",
          "name": "characterNames",
          "type": "string[]"
        },
        {
          "internalType": "string[]",
          "name": "characterImageURIs",
          "type": "string[]"
        },
        {
          "internalType": "uint256[]",
          "name": "characterHp",
          "type": "uint256[]"
        },
        {
          "internalType": "uint256[]",
          "name": "characterAttackDmg",
          "type": "uint256[]"
        },
        {
          "internalType": "string",
          "name": "bossName",
          "type": "string"
        },
        {
          "internalType": "string",
          "name": "bossImageURI",
          "type": "string"
        },
        {
          "internalType": "uint256",
          "name": "bossHp",
          "type": "uint256"
        },
        {
          "internalType": "uint256",
          "name": "bossAttackDamage",
          "type": "uint256"
        }
      ],
      "stateMutability": "nonpayable",
      "type": "constructor"
    },
    {
      "inputs": [
        {
          "internalType": "address",
          "name": "have",
          "type": "address"
        },
        {
          "internalType": "address",
          "name": "want",
          "type": "address"
        }
      ],
      "name": "OnlyCoordinatorCanFulfill",
      "type": "error"
    },
    {
      "anonymous": false,
      "inputs": [
        {
          "indexed": true,
          "internalType": "address",
          "name": "owner",
          "type": "address"
        },
        {
          "indexed": true,
          "internalType": "address",
          "name": "approved",
          "type": "address"
        },
        {
          "indexed": true,
          "internalType": "uint256",
          "name": "tokenId",
          "type": "uint256"
        }
      ],
      "name": "Approval",
      "type": "event"
    },
    {
      "anonymous": false,
      "inputs": [
        {
          "indexed": true,
          "internalType": "address",
          "name": "owner",
          "type": "address"
        },
        {
          "indexed": true,
          "internalType": "address",
          "name": "operator",
          "type": "address"
        },
        {
          "indexed": false,
          "internalType": "bool",
          "name": "approved",
          "type": "bool"
        }
      ],
      "name": "ApprovalForAll",
      "type": "event"
    },
    {
      "anonymous": false,
      "inputs": [
        {
          "indexed": false,
          "internalType": "uint256",
          "name": "newBossHp",
          "type": "uint256"
        },
        {
          "indexed": false,
          "internalType": "uint256",
          "name": "newPlayerHp",
          "type": "uint256"
        }
      ],
      "name": "AttackComplete",
      "type": "event"
    },
    {
      "anonymous": false,
      "inputs": [
        {
          "indexed": false,
          "internalType": "address",
          "name": "sender",
          "type": "address"
        },
        {
          "indexed": false,
          "internalType": "uint256",
          "name": "tokenId",
          "type": "uint256"
        },
        {
          "indexed": false,
          "internalType": "uint256",
          "name": "characterIndex",
          "type": "uint256"
        }
      ],
      "name": "CharacterNFTMinted",
      "type": "event"
    },
    {
      "anonymous": false,
      "inputs": [
        {
          "indexed": true,
          "internalType": "address",
          "name": "previousOwner",
          "type": "address"
        },
        {
          "indexed": true,
          "internalType": "address",
          "name": "newOwner",
          "type": "address"
        }
      ],
      "name": "OwnershipTransferred",
      "type": "event"
    },
    {
      "anonymous": false,
      "inputs": [
        {
          "indexed": true,
          "internalType": "address",
          "name": "from",
          "type": "address"
        },
        {
          "indexed": true,
          "internalType": "address",
          "name": "to",
          "type": "address"
        },
        {
          "indexed": true,
          "internalType": "uint256",
          "name": "tokenId",
          "type": "uint256"
        }
      ],
      "name": "Transfer",
      "type": "event"
    },
    {
      "inputs": [
        {
          "internalType": "address",
          "name": "to",
          "type": "address"
        },
        {
          "internalType": "uint256",
          "name": "tokenId",
          "type": "uint256"
        }
      ],
      "name": "approve",
      "outputs": [],
      "stateMutability": "nonpayable",
      "type": "function"
    },
    {
      "inputs": [],
      "name": "attackBoss",
      "outputs": [],
      "stateMutability": "nonpayable",
      "type": "function"
    },
    {
      "inputs": [
        {
          "internalType": "address",
          "name": "owner",
          "type": "address"
        }
      ],
      "name": "balanceOf",
      "outputs": [
        {
          "internalType": "uint256",
          "name": "",
          "type": "uint256"
        }
      ],
      "stateMutability": "view",
      "type": "function"
    },
    {
      "inputs": [],
      "name": "bigBoss",
      "outputs": [
        {
          "internalType": "string",
          "name": "name",
          "type": "string"
        },
        {
          "internalType": "string",
          "name": "imageURI",
          "type": "string"
        },
        {
          "internalType": "uint256",
          "name": "hp",
          "type": "uint256"
        },
        {
          "internalType": "uint256",
          "name": "maxHp",
          "type": "uint256"
        },
        {
          "internalType": "uint256",
          "name": "attackDamage",
          "type": "uint256"
        }
      ],
      "stateMutability": "view",
      "type": "function"
    },
    {
      "inputs": [
        {
          "internalType": "address",
          "name": "_address",
          "type": "address"
        }
      ],
      "name": "checkIfUserHasNFT",
      "outputs": [
        {
          "components": [
            {
              "internalType": "uint256",
              "name": "characterIndex",
              "type": "uint256"
            },
            {
              "internalType": "string",
              "name": "name",
              "type": "string"
            },
            {
              "internalType": "string",
              "name": "imageURI",
              "type": "string"
            },
            {
              "internalType": "uint256",
              "name": "hp",
              "type": "uint256"
            },
            {
              "internalType": "uint256",
              "name": "maxHp",
              "type": "uint256"
            },
            {
              "internalType": "uint256",
              "name": "attackDamage",
              "type": "uint256"
            }
          ],
          "internalType": "struct MyEpicGame.CharacterAttributes",
          "name": "",
          "type": "tuple"
        }
      ],
      "stateMutability": "view",
      "type": "function"
    },
    {
      "inputs": [],
      "name": "getAllDefaultCharacters",
      "outputs": [
        {
          "components": [
            {
              "internalType": "uint256",
              "name": "characterIndex",
              "type": "uint256"
            },
            {
              "internalType": "string",
              "name": "name",
              "type": "string"
            },
            {
              "internalType": "string",
              "name": "imageURI",
              "type": "string"
            },
            {
              "internalType": "uint256",
              "name": "hp",
              "type": "uint256"
            },
            {
              "internalType": "uint256",
              "name": "maxHp",
              "type": "uint256"
            },
            {
              "internalType": "uint256",
              "name": "attackDamage",
              "type": "uint256"
            }
          ],
          "internalType": "struct MyEpicGame.CharacterAttributes[]",
          "name": "",
          "type": "tuple[]"
        }
      ],
      "stateMutability": "view",
      "type": "function"
    },
    {
      "inputs": [
        {
          "internalType": "uint256",
          "name": "tokenId",
          "type": "uint256"
        }
      ],
      "name": "getApproved",
      "outputs": [
        {
          "internalType": "address",
          "name": "",
          "type": "address"
        }
      ],
      "stateMutability": "view",
      "type": "function"
    },
    {
      "inputs": [],
      "name": "getBigBoss",
      "outputs": [
        {
          "components": [
            {
              "internalType": "string",
              "name": "name",
              "type": "string"
            },
            {
              "internalType": "string",
              "name": "imageURI",
              "type": "string"
            },
            {
              "internalType": "uint256",
              "name": "hp",
              "type": "uint256"
            },
            {
              "internalType": "uint256",
              "name": "maxHp",
              "type": "uint256"
            },
            {
              "internalType": "uint256",
              "name": "attackDamage",
              "type": "uint256"
            }
          ],
          "internalType": "struct MyEpicGame.BigBoss",
          "name": "",
          "type": "tuple"
        }
      ],
      "stateMutability": "view",
      "type": "function"
    },
    {
      "inputs": [],
      "name": "getPlayers",
      "outputs": [
        {
          "components": [
            {
              "internalType": "uint256",
              "name": "characterIndex",
              "type": "uint256"
            },
            {
              "internalType": "string",
              "name": "name",
              "type": "string"
            },
            {
              "internalType": "string",
              "name": "imageURI",
              "type": "string"
            },
            {
              "internalType": "uint256",
              "name": "hp",
              "type": "uint256"
            },
            {
              "internalType": "uint256",
              "name": "maxHp",
              "type": "uint256"
            },
            {
              "internalType": "uint256",
              "name": "attackDamage",
              "type": "uint256"
            }
          ],
          "internalType": "struct MyEpicGame.CharacterAttributes[]",
          "name": "",
          "type": "tuple[]"
        }
      ],
      "stateMutability": "view",
      "type": "function"
    },
    {
      "inputs": [
        {
          "internalType": "address",
          "name": "owner",
          "type": "address"
        },
        {
          "internalType": "address",
          "name": "operator",
          "type": "address"
        }
      ],
      "name": "isApprovedForAll",
      "outputs": [
        {
          "internalType": "bool",
          "name": "",
          "type": "bool"
        }
      ],
      "stateMutability": "view",
      "type": "function"
    },
    {
      "inputs": [
        {
          "internalType": "uint256",
          "name": "_characterIndex",
          "type": "uint256"
        }
      ],
      "name": "mintCharacterNFT",
      "outputs": [],
      "stateMutability": "nonpayable",
      "type": "function"
    },
    {
      "inputs": [],
      "name": "name",
      "outputs": [
        {
          "internalType": "string",
          "name": "",
          "type": "string"
        }
      ],
      "stateMutability": "view",
      "type": "function"
    },
    {
      "inputs": [
        {
          "internalType": "uint256",
          "name": "",
          "type": "uint256"
        }
      ],
      "name": "nftHolderAttributes",
      "outputs": [
        {
          "internalType": "uint256",
          "name": "characterIndex",
          "type": "uint256"
        },
        {
          "internalType": "string",
          "name": "name",
          "type": "string"
        },
        {
          "internalType": "string",
          "name": "imageURI",
          "type": "string"
        },
        {
          "internalType": "uint256",
          "name": "hp",
          "type": "uint256"
        },
        {
          "internalType": "uint256",
          "name": "maxHp",
          "type": "uint256"
        },
        {
          "internalType": "uint256",
          "name": "attackDamage",
          "type": "uint256"
        }
      ],
      "stateMutability": "view",
      "type": "function"
    },
    {
      "inputs": [
        {
          "internalType": "address",
          "name": "",
          "type": "address"
        }
      ],
      "name": "nftHolders",
      "outputs": [
        {
          "internalType": "uint256",
          "name": "",
          "type": "uint256"
        }
      ],
      "stateMutability": "view",
      "type": "function"
    },
    {
      "inputs": [],
      "name": "owner",
      "outputs": [
        {
          "internalType": "address",
          "name": "",
          "type": "address"
        }
      ],
      "stateMutability": "view",
      "type": "function"
    },
    {
      "inputs": [
        {
          "internalType": "uint256",
          "name": "tokenId",
          "type": "uint256"
        }
      ],
      "name": "ownerOf",
      "outputs": [
        {
          "internalType": "address",
          "name": "",
          "type": "address"
        }
      ],
      "stateMutability": "view",
      "type": "function"
    },
    {
      "inputs": [
        {
          "internalType": "uint256",
          "name": "requestId",
          "type": "uint256"
        },
        {
          "internalType": "uint256[]",
          "name": "randomWords",
          "type": "uint256[]"
        }
      ],
      "name": "rawFulfillRandomWords",
      "outputs": [],
      "stateMutability": "nonpayable",
      "type": "function"
    },
    {
      "inputs": [],
      "name": "renounceOwnership",
      "outputs": [],
      "stateMutability": "nonpayable",
      "type": "function"
    },
    {
      "inputs": [
        {
          "internalType": "uint256",
          "name": "",
          "type": "uint256"
        }
      ],
      "name": "s_randomWords",
      "outputs": [
        {
          "internalType": "uint256",
          "name": "",
          "type": "uint256"
        }
      ],
      "stateMutability": "view",
      "type": "function"
    },
    {
      "inputs": [
        {
          "internalType": "address",
          "name": "from",
          "type": "address"
        },
        {
          "internalType": "address",
          "name": "to",
          "type": "address"
        },
        {
          "internalType": "uint256",
          "name": "tokenId",
          "type": "uint256"
        }
      ],
      "name": "safeTransferFrom",
      "outputs": [],
      "stateMutability": "nonpayable",
      "type": "function"
    },
    {
      "inputs": [
        {
          "internalType": "address",
          "name": "from",
          "type": "address"
        },
        {
          "internalType": "address",
          "name": "to",
          "type": "address"
        },
        {
          "internalType": "uint256",
          "name": "tokenId",
          "type": "uint256"
        },
        {
          "internalType": "bytes",
          "name": "_data",
          "type": "bytes"
        }
      ],
      "name": "safeTransferFrom",
      "outputs": [],
      "stateMutability": "nonpayable",
      "type": "function"
    },
    {
      "inputs": [
        {
          "internalType": "address",
          "name": "operator",
          "type": "address"
        },
        {
          "internalType": "bool",
          "name": "approved",
          "type": "bool"
        }
      ],
      "name": "setApprovalForAll",
      "outputs": [],
      "stateMutability": "nonpayable",
      "type": "function"
    },
    {
      "inputs": [
        {
          "internalType": "bytes4",
          "name": "interfaceId",
          "type": "bytes4"
        }
      ],
      "name": "supportsInterface",
      "outputs": [
        {
          "internalType": "bool",
          "name": "",
          "type": "bool"
        }
      ],
      "stateMutability": "view",
      "type": "function"
    },
    {
      "inputs": [],
      "name": "symbol",
      "outputs": [
        {
          "internalType": "string",
          "name": "",
          "type": "string"
        }
      ],
      "stateMutability": "view",
      "type": "function"
    },
    {
      "inputs": [
        {
          "internalType": "uint256",
          "name": "_tokenId",
          "type": "uint256"
        }
      ],
      "name": "tokenURI",
      "outputs": [
        {
          "internalType": "string",
          "name": "",
          "type": "string"
        }
      ],
      "stateMutability": "view",
      "type": "function"
    },
    {
      "inputs": [
        {
          "internalType": "address",
          "name": "from",
          "type": "address"
        },
        {
          "internalType": "address",
          "name": "to",
          "type": "address"
        },
        {
          "internalType": "uint256",
          "name": "tokenId",
          "type": "uint256"
        }
      ],
      "name": "transferFrom",
      "outputs": [],
      "stateMutability": "nonpayable",
      "type": "function"
    },
    {
      "inputs": [
        {
          "internalType": "address",
          "name": "newOwner",
          "type": "address"
        }
      ],
      "name": "transferOwnership",
      "outputs": [],
      "stateMutability": "nonpayable",
      "type": "function"
    }
  ],
  "bytecode": "0x60a0604052736168499c0cffcacd319c818142124b7a15e857ab601360006101000a81548173ffffffffffffffffffffffffffffffffffffffff021916908373ffffffffffffffffffffffffffffffffffffffff1602179055507fd89b2bf150e3b9e13446986e571fb9cab24b13cea0a43ea20a6049a85cc807cc60001b601455620186a0601560006101000a81548163ffffffff021916908363ffffffff1602179055506003601560046101000a81548161ffff021916908361ffff1602179055506002601560066101000a81548163ffffffff021916908363ffffffff160217905550348015620000f157600080fd5b50604051620068bf380380620068bf833981810160405281019062000117919062000d51565b601360009054906101000a900473ffffffffffffffffffffffffffffffffffffffff166040518060400160405280600d81526020017f4b61707061204c6567656e6473000000000000000000000000000000000000008152506040518060400160405280600581526020017f4b415050410000000000000000000000000000000000000000000000000000008152508160009080519060200190620001be92919062000aa2565b508060019080519060200190620001d792919062000aa2565b5050508073ffffffffffffffffffffffffffffffffffffffff1660808173ffffffffffffffffffffffffffffffffffffffff1660601b81525050506200023262000226620008e960201b60201c565b620008f160201b60201c565b601360009054906101000a900473ffffffffffffffffffffffffffffffffffffffff16600d60006101000a81548173ffffffffffffffffffffffffffffffffffffffff021916908373ffffffffffffffffffffffffffffffffffffffff16021790555088601060006101000a81548167ffffffffffffffff021916908367ffffffffffffffff1602179055506040518060a0016040528085815260200184815260200183815260200183815260200182815250600860008201518160000190805190602001906200030592919062000aa2565b5060208201518160010190805190602001906200032492919062000aa2565b50604082015181600201556060820151816003015560808201518160040155905050620004a76040518060600160405280602a815260200162006895602a9139600860000180546200037690620010a1565b80601f0160208091040260200160405190810160405280929190818152602001828054620003a490620010a1565b8015620003f55780601f10620003c957610100808354040283529160200191620003f5565b820191906000526020600020905b815481529060010190602001808311620003d757829003601f168201915b5050505050600860020154600860010180546200041290620010a1565b80601f01602080910402602001604051908101604052809291908181526020018280546200044090620010a1565b8015620004915780601f10620004655761010080835404028352916020019162000491565b820191906000526020600020905b8154815290600101906020018083116200047357829003601f168201915b5050505050620009b760201b620023bf1760201c565b60005b8851811015620008c257600e6040518060c001604052808381526020018b848151811062000501577f4e487b7100000000000000000000000000000000000000000000000000000000600052603260045260246000fd5b602002602001015181526020018a848151811062000548577f4e487b7100000000000000000000000000000000000000000000000000000000600052603260045260246000fd5b602002602001015181526020018984815181106200058f577f4e487b7100000000000000000000000000000000000000000000000000000000600052603260045260246000fd5b60200260200101518152602001898481518110620005d6577f4e487b7100000000000000000000000000000000000000000000000000000000600052603260045260246000fd5b602002602001015181526020018884815181106200061d577f4e487b7100000000000000000000000000000000000000000000000000000000600052603260045260246000fd5b602002602001015181525090806001815401808255809150506001900390600052602060002090600602016000909190919091506000820151816000015560208201518160010190805190602001906200067992919062000aa2565b5060408201518160020190805190602001906200069892919062000aa2565b50606082015181600301556080820151816004015560a0820151816005015550506000600e8281548110620006f6577f4e487b7100000000000000000000000000000000000000000000000000000000600052603260045260246000fd5b90600052602060002090600602016040518060c0016040529081600082015481526020016001820180546200072b90620010a1565b80601f01602080910402602001604051908101604052809291908181526020018280546200075990620010a1565b8015620007aa5780601f106200077e57610100808354040283529160200191620007aa565b820191906000526020600020905b8154815290600101906020018083116200078c57829003601f168201915b50505050508152602001600282018054620007c590620010a1565b80601f0160208091040260200160405190810160405280929190818152602001828054620007f390620010a1565b8015620008445780601f10620008185761010080835404028352916020019162000844565b820191906000526020600020905b8154815290600101906020018083116200082657829003601f168201915b5050505050815260200160038201548152602001600482015481526020016005820154815250509050620008ab6040518060600160405280602581526020016200687060259139826020015183606001518460400151620009b760201b620023bf1760201c565b508080620008b9906200110d565b915050620004aa565b50620008da600762000a6360201b620024611760201c565b5050505050505050506200122d565b600033905090565b6000600660009054906101000a900473ffffffffffffffffffffffffffffffffffffffff16905081600660006101000a81548173ffffffffffffffffffffffffffffffffffffffff021916908373ffffffffffffffffffffffffffffffffffffffff1602179055508173ffffffffffffffffffffffffffffffffffffffff168173ffffffffffffffffffffffffffffffffffffffff167f8be0079c531659141344cd1fd0a4f28419497f9722a3daafe3b4186f6b6457e060405160405180910390a35050565b62000a5d84848484604051602401620009d4949392919062000f12565b6040516020818303038152906040527f8d142cdd000000000000000000000000000000000000000000000000000000007bffffffffffffffffffffffffffffffffffffffffffffffffffffffff19166020820180517bffffffffffffffffffffffffffffffffffffffffffffffffffffffff838183161783525050505062000a7960201b60201c565b50505050565b6001816000016000828254019250508190555050565b60008151905060006a636f6e736f6c652e6c6f679050602083016000808483855afa5050505050565b82805462000ab090620010a1565b90600052602060002090601f01602090048101928262000ad4576000855562000b20565b82601f1062000aef57805160ff191683800117855562000b20565b8280016001018555821562000b20579182015b8281111562000b1f57825182559160200191906001019062000b02565b5b50905062000b2f919062000b33565b5090565b5b8082111562000b4e57600081600090555060010162000b34565b5090565b600062000b6962000b638462000f9d565b62000f74565b9050808382526020820190508285602086028201111562000b8957600080fd5b60005b8581101562000bd857815167ffffffffffffffff81111562000bad57600080fd5b80860162000bbc898262000cf6565b8552602085019450602084019350505060018101905062000b8c565b5050509392505050565b600062000bf962000bf38462000fcc565b62000f74565b9050808382526020820190508285602086028201111562000c1957600080fd5b60005b8581101562000c4d578162000c32888262000d23565b84526020840193506020830192505060018101905062000c1c565b5050509392505050565b600062000c6e62000c688462000ffb565b62000f74565b90508281526020810184848401111562000c8757600080fd5b62000c948482856200106b565b509392505050565b600082601f83011262000cae57600080fd5b815162000cc084826020860162000b52565b91505092915050565b600082601f83011262000cdb57600080fd5b815162000ced84826020860162000be2565b91505092915050565b600082601f83011262000d0857600080fd5b815162000d1a84826020860162000c57565b91505092915050565b60008151905062000d3481620011f9565b92915050565b60008151905062000d4b8162001213565b92915050565b60008060008060008060008060006101208a8c03121562000d7157600080fd5b600062000d818c828d0162000d3a565b99505060208a015167ffffffffffffffff81111562000d9f57600080fd5b62000dad8c828d0162000c9c565b98505060408a015167ffffffffffffffff81111562000dcb57600080fd5b62000dd98c828d0162000c9c565b97505060608a015167ffffffffffffffff81111562000df757600080fd5b62000e058c828d0162000cc9565b96505060808a015167ffffffffffffffff81111562000e2357600080fd5b62000e318c828d0162000cc9565b95505060a08a015167ffffffffffffffff81111562000e4f57600080fd5b62000e5d8c828d0162000cf6565b94505060c08a015167ffffffffffffffff81111562000e7b57600080fd5b62000e898c828d0162000cf6565b93505060e062000e9c8c828d0162000d23565b92505061010062000eb08c828d0162000d23565b9150509295985092959850929598565b600062000ecd8262001031565b62000ed981856200103c565b935062000eeb8185602086016200106b565b62000ef681620011e8565b840191505092915050565b62000f0c816200104d565b82525050565b6000608082019050818103600083015262000f2e818762000ec0565b9050818103602083015262000f44818662000ec0565b905062000f55604083018562000f01565b818103606083015262000f69818462000ec0565b905095945050505050565b600062000f8062000f93565b905062000f8e8282620010d7565b919050565b6000604051905090565b600067ffffffffffffffff82111562000fbb5762000fba620011b9565b5b602082029050602081019050919050565b600067ffffffffffffffff82111562000fea5762000fe9620011b9565b5b602082029050602081019050919050565b600067ffffffffffffffff821115620010195762001018620011b9565b5b6200102482620011e8565b9050602081019050919050565b600081519050919050565b600082825260208201905092915050565b6000819050919050565b600067ffffffffffffffff82169050919050565b60005b838110156200108b5780820151818401526020810190506200106e565b838111156200109b576000848401525b50505050565b60006002820490506001821680620010ba57607f821691505b60208210811415620010d157620010d06200118a565b5b50919050565b620010e282620011e8565b810181811067ffffffffffffffff82111715620011045762001103620011b9565b5b80604052505050565b60006200111a826200104d565b91507fffffffffffffffffffffffffffffffffffffffffffffffffffffffffffffffff82141562001150576200114f6200115b565b5b600182019050919050565b7f4e487b7100000000000000000000000000000000000000000000000000000000600052601160045260246000fd5b7f4e487b7100000000000000000000000000000000000000000000000000000000600052602260045260246000fd5b7f4e487b7100000000000000000000000000000000000000000000000000000000600052604160045260246000fd5b6000601f19601f8301169050919050565b62001204816200104d565b81146200121057600080fd5b50565b6200121e8162001057565b81146200122a57600080fd5b50565b60805160601c61561d6200125360003960008181610ba60152610bfa015261561d6000f3fe608060405234801561001057600080fd5b50600436106101a95760003560e01c80638b5b9ccc116100f9578063b953084e11610097578063e985e9c511610071578063e985e9c5146104c5578063f2fde38b146104f5578063f6eaffc814610511578063f8b81ef714610541576101a9565b8063b953084e1461046d578063c87b56dd1461048b578063d4f24c5b146104bb576101a9565b806398da4c95116100d357806398da4c95146103de578063a22cb46514610413578063a9c326791461042f578063b88d4fde14610451576101a9565b80638b5b9ccc146103845780638da5cb5b146103a257806395d89b41146103c0576101a9565b80631fe543e3116101665780636352211e116101405780636352211e146102ea57806370a082311461031a578063715018a61461034a5780637df124a114610354576101a9565b80631fe543e31461029657806323b872dd146102b257806342842e0e146102ce576101a9565b806301ffc9a7146101ae5780630665f961146101de57806306fdde03146101fc578063081812fc1461021a578063095ea7b31461024a5780631bf7bfd414610266575b600080fd5b6101c860048036038101906101c39190613a0b565b61055d565b6040516101d591906143bb565b60405180910390f35b6101e661063f565b6040516101f39190614807565b60405180910390f35b61020461079b565b6040516102119190614429565b60405180910390f35b610234600480360381019061022f9190613a5d565b61082d565b60405161024191906142d2565b60405180910390f35b610264600480360381019061025f91906139cf565b6108b2565b005b610280600480360381019061027b9190613864565b6109ca565b60405161028d9190614829565b60405180910390f35b6102b060048036038101906102ab9190613aaf565b610ba4565b005b6102cc60048036038101906102c791906138c9565b610c64565b005b6102e860048036038101906102e391906138c9565b610cc4565b005b61030460048036038101906102ff9190613a5d565b610ce4565b60405161031191906142d2565b60405180910390f35b610334600480360381019061032f9190613864565b610d96565b604051610341919061484b565b60405180910390f35b610352610e4e565b005b61036e60048036038101906103699190613864565b610ed6565b60405161037b919061484b565b60405180910390f35b61038c610eee565b6040516103999190614399565b60405180910390f35b6103aa611151565b6040516103b791906142d2565b60405180910390f35b6103c861117b565b6040516103d59190614429565b60405180910390f35b6103f860048036038101906103f39190613a5d565b61120d565b60405161040a96959493929190614866565b60405180910390f35b61042d60048036038101906104289190613993565b611359565b005b61043761136f565b6040516104489594939291906144f8565b60405180910390f35b61046b60048036038101906104669190613918565b6114a3565b005b610475611505565b6040516104829190614399565b60405180910390f35b6104a560048036038101906104a09190613a5d565b6116b0565b6040516104b29190614429565b60405180910390f35b6104c36118cb565b005b6104df60048036038101906104da919061388d565b611d99565b6040516104ec91906143bb565b60405180910390f35b61050f600480360381019061050a9190613864565b611e2d565b005b61052b60048036038101906105269190613a5d565b611f25565b604051610538919061484b565b60405180910390f35b61055b60048036038101906105569190613a5d565b611f49565b005b60007f80ac58cd000000000000000000000000000000000000000000000000000000007bffffffffffffffffffffffffffffffffffffffffffffffffffffffff1916827bffffffffffffffffffffffffffffffffffffffffffffffffffffffff1916148061062857507f5b5e139f000000000000000000000000000000000000000000000000000000007bffffffffffffffffffffffffffffffffffffffffffffffffffffffff1916827bffffffffffffffffffffffffffffffffffffffffffffffffffffffff1916145b80610638575061063782612477565b5b9050919050565b610647613593565b60086040518060a001604052908160008201805461066490614c14565b80601f016020809104026020016040519081016040528092919081815260200182805461069090614c14565b80156106dd5780601f106106b2576101008083540402835291602001916106dd565b820191906000526020600020905b8154815290600101906020018083116106c057829003601f168201915b505050505081526020016001820180546106f690614c14565b80601f016020809104026020016040519081016040528092919081815260200182805461072290614c14565b801561076f5780601f106107445761010080835404028352916020019161076f565b820191906000526020600020905b81548152906001019060200180831161075257829003601f168201915b505050505081526020016002820154815260200160038201548152602001600482015481525050905090565b6060600080546107aa90614c14565b80601f01602080910402602001604051908101604052809291908181526020018280546107d690614c14565b80156108235780601f106107f857610100808354040283529160200191610823565b820191906000526020600020905b81548152906001019060200180831161080657829003601f168201915b5050505050905090565b6000610838826124e1565b610877576040517f08c379a000000000000000000000000000000000000000000000000000000000815260040161086e90614787565b60405180910390fd5b6004600083815260200190815260200160002060009054906101000a900473ffffffffffffffffffffffffffffffffffffffff169050919050565b60006108bd82610ce4565b90508073ffffffffffffffffffffffffffffffffffffffff168373ffffffffffffffffffffffffffffffffffffffff16141561092e576040517f08c379a0000000000000000000000000000000000000000000000000000000008152600401610925906147c7565b60405180910390fd5b8073ffffffffffffffffffffffffffffffffffffffff1661094d61254d565b73ffffffffffffffffffffffffffffffffffffffff16148061097c575061097b8161097661254d565b611d99565b5b6109bb576040517f08c379a00000000000000000000000000000000000000000000000000000000081526004016109b290614707565b60405180910390fd5b6109c58383612555565b505050565b6109d26135c2565b6000601260008473ffffffffffffffffffffffffffffffffffffffff1673ffffffffffffffffffffffffffffffffffffffff1681526020019081526020016000205490506000811115610b9157601160008281526020019081526020016000206040518060c001604052908160008201548152602001600182018054610a5790614c14565b80601f0160208091040260200160405190810160405280929190818152602001828054610a8390614c14565b8015610ad05780601f10610aa557610100808354040283529160200191610ad0565b820191906000526020600020905b815481529060010190602001808311610ab357829003601f168201915b50505050508152602001600282018054610ae990614c14565b80601f0160208091040260200160405190810160405280929190818152602001828054610b1590614c14565b8015610b625780601f10610b3757610100808354040283529160200191610b62565b820191906000526020600020905b815481529060010190602001808311610b4557829003601f168201915b505050505081526020016003820154815260200160048201548152602001600582015481525050915050610b9f565b610b996135c2565b80925050505b919050565b7f000000000000000000000000000000000000000000000000000000000000000073ffffffffffffffffffffffffffffffffffffffff163373ffffffffffffffffffffffffffffffffffffffff1614610c5657337f00000000000000000000000000000000000000000000000000000000000000006040517f1cf993f4000000000000000000000000000000000000000000000000000000008152600401610c4d9291906142ed565b60405180910390fd5b610c60828261260e565b5050565b610c75610c6f61254d565b82612629565b610cb4576040517f08c379a0000000000000000000000000000000000000000000000000000000008152600401610cab906147e7565b60405180910390fd5b610cbf838383612707565b505050565b610cdf838383604051806020016040528060008152506114a3565b505050565b6000806002600084815260200190815260200160002060009054906101000a900473ffffffffffffffffffffffffffffffffffffffff169050600073ffffffffffffffffffffffffffffffffffffffff168173ffffffffffffffffffffffffffffffffffffffff161415610d8d576040517f08c379a0000000000000000000000000000000000000000000000000000000008152600401610d8490614747565b60405180910390fd5b80915050919050565b60008073ffffffffffffffffffffffffffffffffffffffff168273ffffffffffffffffffffffffffffffffffffffff161415610e07576040517f08c379a0000000000000000000000000000000000000000000000000000000008152600401610dfe90614727565b60405180910390fd5b600360008373ffffffffffffffffffffffffffffffffffffffff1673ffffffffffffffffffffffffffffffffffffffff168152602001908152602001600020549050919050565b610e5661254d565b73ffffffffffffffffffffffffffffffffffffffff16610e74611151565b73ffffffffffffffffffffffffffffffffffffffff1614610eca576040517f08c379a0000000000000000000000000000000000000000000000000000000008152600401610ec1906147a7565b60405180910390fd5b610ed4600061296e565b565b60126020528060005260406000206000915090505481565b60606000610efc6007612a34565b905060008167ffffffffffffffff811115610f40577f4e487b7100000000000000000000000000000000000000000000000000000000600052604160045260246000fd5b604051908082528060200260200182016040528015610f7957816020015b610f666135c2565b815260200190600190039081610f5e5790505b50905060005b8281101561114857601160008281526020019081526020016000206040518060c001604052908160008201548152602001600182018054610fbf90614c14565b80601f0160208091040260200160405190810160405280929190818152602001828054610feb90614c14565b80156110385780601f1061100d57610100808354040283529160200191611038565b820191906000526020600020905b81548152906001019060200180831161101b57829003601f168201915b5050505050815260200160028201805461105190614c14565b80601f016020809104026020016040519081016040528092919081815260200182805461107d90614c14565b80156110ca5780601f1061109f576101008083540402835291602001916110ca565b820191906000526020600020905b8154815290600101906020018083116110ad57829003601f168201915b50505050508152602001600382015481526020016004820154815260200160058201548152505082828151811061112a577f4e487b7100000000000000000000000000000000000000000000000000000000600052603260045260246000fd5b6020026020010181905250808061114090614c77565b915050610f7f565b50809250505090565b6000600660009054906101000a900473ffffffffffffffffffffffffffffffffffffffff16905090565b60606001805461118a90614c14565b80601f01602080910402602001604051908101604052809291908181526020018280546111b690614c14565b80156112035780601f106111d857610100808354040283529160200191611203565b820191906000526020600020905b8154815290600101906020018083116111e657829003601f168201915b5050505050905090565b601160205280600052604060002060009150905080600001549080600101805461123690614c14565b80601f016020809104026020016040519081016040528092919081815260200182805461126290614c14565b80156112af5780601f10611284576101008083540402835291602001916112af565b820191906000526020600020905b81548152906001019060200180831161129257829003601f168201915b5050505050908060020180546112c490614c14565b80601f01602080910402602001604051908101604052809291908181526020018280546112f090614c14565b801561133d5780601f106113125761010080835404028352916020019161133d565b820191906000526020600020905b81548152906001019060200180831161132057829003601f168201915b5050505050908060030154908060040154908060050154905086565b61136b61136461254d565b8383612a42565b5050565b600880600001805461138090614c14565b80601f01602080910402602001604051908101604052809291908181526020018280546113ac90614c14565b80156113f95780601f106113ce576101008083540402835291602001916113f9565b820191906000526020600020905b8154815290600101906020018083116113dc57829003601f168201915b50505050509080600101805461140e90614c14565b80601f016020809104026020016040519081016040528092919081815260200182805461143a90614c14565b80156114875780601f1061145c57610100808354040283529160200191611487565b820191906000526020600020905b81548152906001019060200180831161146a57829003601f168201915b5050505050908060020154908060030154908060040154905085565b6114b46114ae61254d565b83612629565b6114f3576040517f08c379a00000000000000000000000000000000000000000000000000000000081526004016114ea906147e7565b60405180910390fd5b6114ff84848484612baf565b50505050565b6060600e805480602002602001604051908101604052809291908181526020016000905b828210156116a757838290600052602060002090600602016040518060c00160405290816000820154815260200160018201805461156690614c14565b80601f016020809104026020016040519081016040528092919081815260200182805461159290614c14565b80156115df5780601f106115b4576101008083540402835291602001916115df565b820191906000526020600020905b8154815290600101906020018083116115c257829003601f168201915b505050505081526020016002820180546115f890614c14565b80601f016020809104026020016040519081016040528092919081815260200182805461162490614c14565b80156116715780601f1061164657610100808354040283529160200191611671565b820191906000526020600020905b81548152906001019060200180831161165457829003601f168201915b50505050508152602001600382015481526020016004820154815260200160058201548152505081526020019060010190611529565b50505050905090565b60606000601160008481526020019081526020016000206040518060c0016040529081600082015481526020016001820180546116ec90614c14565b80601f016020809104026020016040519081016040528092919081815260200182805461171890614c14565b80156117655780601f1061173a57610100808354040283529160200191611765565b820191906000526020600020905b81548152906001019060200180831161174857829003601f168201915b5050505050815260200160028201805461177e90614c14565b80601f01602080910402602001604051908101604052809291908181526020018280546117aa90614c14565b80156117f75780601f106117cc576101008083540402835291602001916117f7565b820191906000526020600020905b8154815290600101906020018083116117da57829003601f168201915b5050505050815260200160038201548152602001600482015481526020016005820154815250509050600061182f8260600151612c0b565b905060006118408360800151612c0b565b905060006118518460a00151612c0b565b90506000611897856020015161186689612c0b565b87604001518787876040516020016118839695949392919061420b565b604051602081830303815290604052612db8565b90506000816040516020016118ac91906142b0565b6040516020818303038152906040529050809650505050505050919050565b600060016064600d60009054906101000a900473ffffffffffffffffffffffffffffffffffffffff1673ffffffffffffffffffffffffffffffffffffffff16635d3b1d30601454601060009054906101000a900467ffffffffffffffff16601560049054906101000a900461ffff16601560009054906101000a900463ffffffff16601560069054906101000a900463ffffffff166040518663ffffffff1660e01b81526004016119809594939291906143d6565b602060405180830381600087803b15801561199a57600080fd5b505af11580156119ae573d6000803e3d6000fd5b505050506040513d601f19601f820116820180604052508101906119d29190613a86565b6119dc9190614cc0565b6119e69190614a0d565b90506000601260003373ffffffffffffffffffffffffffffffffffffffff1673ffffffffffffffffffffffffffffffffffffffff1681526020019081526020016000205490506000601160008381526020019081526020016000209050611afb6040518060600160405280603c81526020016155ac603c9139826001018054611a6e90614c14565b80601f0160208091040260200160405190810160405280929190818152602001828054611a9a90614c14565b8015611ae75780601f10611abc57610100808354040283529160200191611ae7565b820191906000526020600020905b815481529060010190602001808311611aca57829003601f168201915b505050505083600301548460050154612f76565b611bd36040518060400160405280601b81526020017f426f73732025732068617320257320485020616e64202573204144000000000081525060086000018054611b4490614c14565b80601f0160208091040260200160405190810160405280929190818152602001828054611b7090614c14565b8015611bbd5780601f10611b9257610100808354040283529160200191611bbd565b820191906000526020600020905b815481529060010190602001808311611ba057829003601f168201915b5050505050600860020154600860040154612f76565b6000816003015411611c1a576040517f08c379a0000000000000000000000000000000000000000000000000000000008152600401611c11906145c7565b60405180910390fd5b600060086002015411611c62576040517f08c379a0000000000000000000000000000000000000000000000000000000008152600401611c5990614687565b60405180910390fd5b80600501546008600201541015611c83576000600860020181905550611cc7565b6000603b8411611c94576000611c97565b601e5b60ff169050808260050154611cac9190614a0d565b600860020154611cbc9190614aee565b600860020181905550505b60086004015481600301541015611ce75760008160030181905550611d05565b6008600401548160030154611cfc9190614aee565b81600301819055505b611d2c6040518060600160405280602581526020016154f160259139600860020154613018565b611d52604051806060016040528060288152602001615584602891398260030154613018565b7f838ab28464562786a6c4ab2311964b82fa60bd9b14aa7e856af1f3f18d41a4146008600201548260030154604051611d8c9291906148d5565b60405180910390a1505050565b6000600560008473ffffffffffffffffffffffffffffffffffffffff1673ffffffffffffffffffffffffffffffffffffffff16815260200190815260200160002060008373ffffffffffffffffffffffffffffffffffffffff1673ffffffffffffffffffffffffffffffffffffffff16815260200190815260200160002060009054906101000a900460ff16905092915050565b611e3561254d565b73ffffffffffffffffffffffffffffffffffffffff16611e53611151565b73ffffffffffffffffffffffffffffffffffffffff1614611ea9576040517f08c379a0000000000000000000000000000000000000000000000000000000008152600401611ea0906147a7565b60405180910390fd5b600073ffffffffffffffffffffffffffffffffffffffff168173ffffffffffffffffffffffffffffffffffffffff161415611f19576040517f08c379a0000000000000000000000000000000000000000000000000000000008152600401611f1090614627565b60405180910390fd5b611f228161296e565b50565b600f8181548110611f3557600080fd5b906000526020600020016000915090505481565b6000601260003373ffffffffffffffffffffffffffffffffffffffff1673ffffffffffffffffffffffffffffffffffffffff1681526020019081526020016000205414611fcb576040517f08c379a0000000000000000000000000000000000000000000000000000000008152600401611fc2906145e7565b60405180910390fd5b6000611fd76007612a34565b9050611fe333826130b4565b6040518060c00160405280838152602001600e848154811061202e577f4e487b7100000000000000000000000000000000000000000000000000000000600052603260045260246000fd5b9060005260206000209060060201600101805461204a90614c14565b80601f016020809104026020016040519081016040528092919081815260200182805461207690614c14565b80156120c35780601f10612098576101008083540402835291602001916120c3565b820191906000526020600020905b8154815290600101906020018083116120a657829003601f168201915b50505050508152602001600e8481548110612107577f4e487b7100000000000000000000000000000000000000000000000000000000600052603260045260246000fd5b9060005260206000209060060201600201805461212390614c14565b80601f016020809104026020016040519081016040528092919081815260200182805461214f90614c14565b801561219c5780601f106121715761010080835404028352916020019161219c565b820191906000526020600020905b81548152906001019060200180831161217f57829003601f168201915b50505050508152602001600e84815481106121e0577f4e487b7100000000000000000000000000000000000000000000000000000000600052603260045260246000fd5b9060005260206000209060060201600301548152602001600e8481548110612231577f4e487b7100000000000000000000000000000000000000000000000000000000600052603260045260246000fd5b9060005260206000209060060201600401548152602001600e8481548110612282577f4e487b7100000000000000000000000000000000000000000000000000000000600052603260045260246000fd5b906000526020600020906006020160050154815250601160008381526020019081526020016000206000820151816000015560208201518160010190805190602001906122d09291906135f8565b5060408201518160020190805190602001906122ed9291906135f8565b50606082015181600301556080820151816004015560a082015181600501559050506123326040518060600160405280602e8152602001615516602e913982846130d2565b80601260003373ffffffffffffffffffffffffffffffffffffffff1673ffffffffffffffffffffffffffffffffffffffff168152602001908152602001600020819055506123806007612461565b7f4bc303fd457a97b4691b9af582ce71868a3d258638c8d4f8c60988a0f0bfb8cd3382846040516123b393929190614362565b60405180910390a15050565b61245b848484846040516024016123d9949392919061444b565b6040516020818303038152906040527f8d142cdd000000000000000000000000000000000000000000000000000000007bffffffffffffffffffffffffffffffffffffffffffffffffffffffff19166020820180517bffffffffffffffffffffffffffffffffffffffffffffffffffffffff8381831617835250505050613171565b50505050565b6001816000016000828254019250508190555050565b60007f01ffc9a7000000000000000000000000000000000000000000000000000000007bffffffffffffffffffffffffffffffffffffffffffffffffffffffff1916827bffffffffffffffffffffffffffffffffffffffffffffffffffffffff1916149050919050565b60008073ffffffffffffffffffffffffffffffffffffffff166002600084815260200190815260200160002060009054906101000a900473ffffffffffffffffffffffffffffffffffffffff1673ffffffffffffffffffffffffffffffffffffffff1614159050919050565b600033905090565b816004600083815260200190815260200160002060006101000a81548173ffffffffffffffffffffffffffffffffffffffff021916908373ffffffffffffffffffffffffffffffffffffffff160217905550808273ffffffffffffffffffffffffffffffffffffffff166125c883610ce4565b73ffffffffffffffffffffffffffffffffffffffff167f8c5be1e5ebec7d5bd14f71427d1e84f3dd0314c0f7b2291e5b200ac8c7c3b92560405160405180910390a45050565b80600f908051906020019061262492919061367e565b505050565b6000612634826124e1565b612673576040517f08c379a000000000000000000000000000000000000000000000000000000000815260040161266a906146e7565b60405180910390fd5b600061267e83610ce4565b90508073ffffffffffffffffffffffffffffffffffffffff168473ffffffffffffffffffffffffffffffffffffffff1614806126ed57508373ffffffffffffffffffffffffffffffffffffffff166126d58461082d565b73ffffffffffffffffffffffffffffffffffffffff16145b806126fe57506126fd8185611d99565b5b91505092915050565b8273ffffffffffffffffffffffffffffffffffffffff1661272782610ce4565b73ffffffffffffffffffffffffffffffffffffffff161461277d576040517f08c379a000000000000000000000000000000000000000000000000000000000815260040161277490614647565b60405180910390fd5b600073ffffffffffffffffffffffffffffffffffffffff168273ffffffffffffffffffffffffffffffffffffffff1614156127ed576040517f08c379a00000000000000000000000000000000000000000000000000000000081526004016127e4906146a7565b60405180910390fd5b6127f883838361319a565b612803600082612555565b6001600360008573ffffffffffffffffffffffffffffffffffffffff1673ffffffffffffffffffffffffffffffffffffffff16815260200190815260200160002060008282546128539190614aee565b925050819055506001600360008473ffffffffffffffffffffffffffffffffffffffff1673ffffffffffffffffffffffffffffffffffffffff16815260200190815260200160002060008282546128aa9190614a0d565b92505081905550816002600083815260200190815260200160002060006101000a81548173ffffffffffffffffffffffffffffffffffffffff021916908373ffffffffffffffffffffffffffffffffffffffff160217905550808273ffffffffffffffffffffffffffffffffffffffff168473ffffffffffffffffffffffffffffffffffffffff167fddf252ad1be2c89b69c2b068fc378daa952ba7f163c4a11628f55a4df523b3ef60405160405180910390a461296983838361319f565b505050565b6000600660009054906101000a900473ffffffffffffffffffffffffffffffffffffffff16905081600660006101000a81548173ffffffffffffffffffffffffffffffffffffffff021916908373ffffffffffffffffffffffffffffffffffffffff1602179055508173ffffffffffffffffffffffffffffffffffffffff168173ffffffffffffffffffffffffffffffffffffffff167f8be0079c531659141344cd1fd0a4f28419497f9722a3daafe3b4186f6b6457e060405160405180910390a35050565b600081600001549050919050565b8173ffffffffffffffffffffffffffffffffffffffff168373ffffffffffffffffffffffffffffffffffffffff161415612ab1576040517f08c379a0000000000000000000000000000000000000000000000000000000008152600401612aa8906146c7565b60405180910390fd5b80600560008573ffffffffffffffffffffffffffffffffffffffff1673ffffffffffffffffffffffffffffffffffffffff16815260200190815260200160002060008473ffffffffffffffffffffffffffffffffffffffff1673ffffffffffffffffffffffffffffffffffffffff16815260200190815260200160002060006101000a81548160ff0219169083151502179055508173ffffffffffffffffffffffffffffffffffffffff168373ffffffffffffffffffffffffffffffffffffffff167f17307eab39ab6107e8899845ad3d59bd9653f200f220920489ca2b5937696c3183604051612ba291906143bb565b60405180910390a3505050565b612bba848484612707565b612bc6848484846131a4565b612c05576040517f08c379a0000000000000000000000000000000000000000000000000000000008152600401612bfc90614607565b60405180910390fd5b50505050565b60606000821415612c53576040518060400160405280600181526020017f30000000000000000000000000000000000000000000000000000000000000008152509050612db3565b600082905060005b60008214612c85578080612c6e90614c77565b915050600a82612c7e9190614a63565b9150612c5b565b60008167ffffffffffffffff811115612cc7577f4e487b7100000000000000000000000000000000000000000000000000000000600052604160045260246000fd5b6040519080825280601f01601f191660200182016040528015612cf95781602001600182028036833780820191505090505b5090505b60008514612dac57600182612d129190614aee565b9150600a85612d219190614cc0565b6030612d2d9190614a0d565b60f81b818381518110612d69577f4e487b7100000000000000000000000000000000000000000000000000000000600052603260045260246000fd5b60200101907effffffffffffffffffffffffffffffffffffffffffffffffffffffffffffff1916908160001a905350600a85612da59190614a63565b9450612cfd565b8093505050505b919050565b60606000825190506000811415612de15760405180602001604052806000815250915050612f71565b60006003600283612df29190614a0d565b612dfc9190614a63565b6004612e089190614a94565b90506000602082612e199190614a0d565b67ffffffffffffffff811115612e58577f4e487b7100000000000000000000000000000000000000000000000000000000600052604160045260246000fd5b6040519080825280601f01601f191660200182016040528015612e8a5781602001600182028036833780820191505090505b5090506000604051806060016040528060408152602001615544604091399050600181016020830160005b86811015612f2e5760038101905062ffffff818a015116603f8160121c168401518060081b905060ff603f83600c1c1686015116810190508060081b905060ff603f8360061c1686015116810190508060081b905060ff603f831686015116810190508060e01b90508084526004840193505050612eb5565b506003860660018114612f485760028114612f5857612f63565b613d3d60f01b6002830352612f63565b603d60f81b60018303525b508484525050819450505050505b919050565b61301284848484604051602401612f9094939291906144a5565b6040516020818303038152906040527fd5cf17d0000000000000000000000000000000000000000000000000000000007bffffffffffffffffffffffffffffffffffffffffffffffffffffffff19166020820180517bffffffffffffffffffffffffffffffffffffffffffffffffffffffff8381831617835250505050613171565b50505050565b6130b0828260405160240161302e929190614559565b6040516020818303038152906040527f9710a9d0000000000000000000000000000000000000000000000000000000007bffffffffffffffffffffffffffffffffffffffffffffffffffffffff19166020820180517bffffffffffffffffffffffffffffffffffffffffffffffffffffffff8381831617835250505050613171565b5050565b6130ce82826040518060200160405280600081525061333b565b5050565b61316c8383836040516024016130ea93929190614589565b6040516020818303038152906040527f969cdd03000000000000000000000000000000000000000000000000000000007bffffffffffffffffffffffffffffffffffffffffffffffffffffffff19166020820180517bffffffffffffffffffffffffffffffffffffffffffffffffffffffff8381831617835250505050613171565b505050565b60008151905060006a636f6e736f6c652e6c6f679050602083016000808483855afa5050505050565b505050565b505050565b60006131c58473ffffffffffffffffffffffffffffffffffffffff16613396565b1561332e578373ffffffffffffffffffffffffffffffffffffffff1663150b7a026131ee61254d565b8786866040518563ffffffff1660e01b81526004016132109493929190614316565b602060405180830381600087803b15801561322a57600080fd5b505af192505050801561325b57506040513d601f19601f820116820180604052508101906132589190613a34565b60015b6132de573d806000811461328b576040519150601f19603f3d011682016040523d82523d6000602084013e613290565b606091505b506000815114156132d6576040517f08c379a00000000000000000000000000000000000000000000000000000000081526004016132cd90614607565b60405180910390fd5b805181602001fd5b63150b7a0260e01b7bffffffffffffffffffffffffffffffffffffffffffffffffffffffff1916817bffffffffffffffffffffffffffffffffffffffffffffffffffffffff191614915050613333565b600190505b949350505050565b61334583836133b9565b61335260008484846131a4565b613391576040517f08c379a000000000000000000000000000000000000000000000000000000000815260040161338890614607565b60405180910390fd5b505050565b6000808273ffffffffffffffffffffffffffffffffffffffff163b119050919050565b600073ffffffffffffffffffffffffffffffffffffffff168273ffffffffffffffffffffffffffffffffffffffff161415613429576040517f08c379a000000000000000000000000000000000000000000000000000000000815260040161342090614767565b60405180910390fd5b613432816124e1565b15613472576040517f08c379a000000000000000000000000000000000000000000000000000000000815260040161346990614667565b60405180910390fd5b61347e6000838361319a565b6001600360008473ffffffffffffffffffffffffffffffffffffffff1673ffffffffffffffffffffffffffffffffffffffff16815260200190815260200160002060008282546134ce9190614a0d565b92505081905550816002600083815260200190815260200160002060006101000a81548173ffffffffffffffffffffffffffffffffffffffff021916908373ffffffffffffffffffffffffffffffffffffffff160217905550808273ffffffffffffffffffffffffffffffffffffffff16600073ffffffffffffffffffffffffffffffffffffffff167fddf252ad1be2c89b69c2b068fc378daa952ba7f163c4a11628f55a4df523b3ef60405160405180910390a461358f6000838361319f565b5050565b6040518060a0016040528060608152602001606081526020016000815260200160008152602001600081525090565b6040518060c001604052806000815260200160608152602001606081526020016000815260200160008152602001600081525090565b82805461360490614c14565b90600052602060002090601f016020900481019282613626576000855561366d565b82601f1061363f57805160ff191683800117855561366d565b8280016001018555821561366d579182015b8281111561366c578251825591602001919060010190613651565b5b50905061367a91906136cb565b5090565b8280548282559060005260206000209081019282156136ba579160200282015b828111156136b957825182559160200191906001019061369e565b5b5090506136c791906136cb565b5090565b5b808211156136e45760008160009055506001016136cc565b5090565b60006136fb6136f684614923565b6148fe565b9050808382526020820190508285602086028201111561371a57600080fd5b60005b8581101561374a5781613730888261383a565b84526020840193506020830192505060018101905061371d565b5050509392505050565b60006137676137628461494f565b6148fe565b90508281526020810184848401111561377f57600080fd5b61378a848285614bd2565b509392505050565b6000813590506137a181615494565b92915050565b600082601f8301126137b857600080fd5b81356137c88482602086016136e8565b91505092915050565b6000813590506137e0816154ab565b92915050565b6000813590506137f5816154c2565b92915050565b60008151905061380a816154c2565b92915050565b600082601f83011261382157600080fd5b8135613831848260208601613754565b91505092915050565b600081359050613849816154d9565b92915050565b60008151905061385e816154d9565b92915050565b60006020828403121561387657600080fd5b600061388484828501613792565b91505092915050565b600080604083850312156138a057600080fd5b60006138ae85828601613792565b92505060206138bf85828601613792565b9150509250929050565b6000806000606084860312156138de57600080fd5b60006138ec86828701613792565b93505060206138fd86828701613792565b925050604061390e8682870161383a565b9150509250925092565b6000806000806080858703121561392e57600080fd5b600061393c87828801613792565b945050602061394d87828801613792565b935050604061395e8782880161383a565b925050606085013567ffffffffffffffff81111561397b57600080fd5b61398787828801613810565b91505092959194509250565b600080604083850312156139a657600080fd5b60006139b485828601613792565b92505060206139c5858286016137d1565b9150509250929050565b600080604083850312156139e257600080fd5b60006139f085828601613792565b9250506020613a018582860161383a565b9150509250929050565b600060208284031215613a1d57600080fd5b6000613a2b848285016137e6565b91505092915050565b600060208284031215613a4657600080fd5b6000613a54848285016137fb565b91505092915050565b600060208284031215613a6f57600080fd5b6000613a7d8482850161383a565b91505092915050565b600060208284031215613a9857600080fd5b6000613aa68482850161384f565b91505092915050565b60008060408385031215613ac257600080fd5b6000613ad08582860161383a565b925050602083013567ffffffffffffffff811115613aed57600080fd5b613af9858286016137a7565b9150509250929050565b6000613b0f83836140a0565b905092915050565b613b2081614b22565b82525050565b6000613b3182614990565b613b3b81856149be565b935083602082028501613b4d85614980565b8060005b85811015613b895784840389528151613b6a8582613b03565b9450613b75836149b1565b925060208a01995050600181019050613b51565b50829750879550505050505092915050565b613ba481614b34565b82525050565b613bb381614b40565b82525050565b6000613bc48261499b565b613bce81856149cf565b9350613bde818560208601614be1565b613be781614dad565b840191505092915050565b6000613bfd826149a6565b613c0781856149e0565b9350613c17818560208601614be1565b613c2081614dad565b840191505092915050565b6000613c36826149a6565b613c4081856149f1565b9350613c50818560208601614be1565b613c5981614dad565b840191505092915050565b6000613c6f826149a6565b613c798185614a02565b9350613c89818560208601614be1565b80840191505092915050565b6000613ca2600b83614a02565b9150613cad82614dbe565b600b82019050919050565b6000613cc5602c836149f1565b9150613cd082614de7565b604082019050919050565b6000613ce86010836149f1565b9150613cf382614e36565b602082019050919050565b6000613d0b6032836149f1565b9150613d1682614e5f565b604082019050919050565b6000613d2e6026836149f1565b9150613d3982614eae565b604082019050919050565b6000613d516025836149f1565b9150613d5c82614efd565b604082019050919050565b6000613d74601c836149f1565b9150613d7f82614f4c565b602082019050919050565b6000613d976027836149f1565b9150613da282614f75565b604082019050919050565b6000613dba600e83614a02565b9150613dc582614fc4565b600e82019050919050565b6000613ddd6024836149f1565b9150613de882614fed565b604082019050919050565b6000613e006019836149f1565b9150613e0b8261503c565b602082019050919050565b6000613e23602c836149f1565b9150613e2e82615065565b604082019050919050565b6000613e46606f83614a02565b9150613e51826150b4565b606f82019050919050565b6000613e696038836149f1565b9150613e748261514f565b604082019050919050565b6000613e8c602a836149f1565b9150613e978261519e565b604082019050919050565b6000613eaf6029836149f1565b9150613eba826151ed565b604082019050919050565b6000613ed2600483614a02565b9150613edd8261523c565b600482019050919050565b6000613ef56020836149f1565b9150613f0082615265565b602082019050919050565b6000613f18602c836149f1565b9150613f238261528e565b604082019050919050565b6000613f3b6020836149f1565b9150613f46826152dd565b602082019050919050565b6000613f5e600a83614a02565b9150613f6982615306565b600a82019050919050565b6000613f816021836149f1565b9150613f8c8261532f565b604082019050919050565b6000613fa4601d83614a02565b9150613faf8261537e565b601d82019050919050565b6000613fc76031836149f1565b9150613fd2826153a7565b604082019050919050565b6000613fea603d83614a02565b9150613ff5826153f6565b603d82019050919050565b600061400d602d83614a02565b915061401882615445565b602d82019050919050565b600060a08301600083015184820360008601526140408282613bf2565b9150506020830151848203602086015261405a8282613bf2565b915050604083015161406f60408601826141cf565b50606083015161408260608601826141cf565b50608083015161409560808601826141cf565b508091505092915050565b600060c0830160008301516140b860008601826141cf565b50602083015184820360208601526140d08282613bf2565b915050604083015184820360408601526140ea8282613bf2565b91505060608301516140ff60608601826141cf565b50608083015161411260808601826141cf565b5060a083015161412560a08601826141cf565b508091505092915050565b600060c08301600083015161414860008601826141cf565b50602083015184820360208601526141608282613bf2565b9150506040830151848203604086015261417a8282613bf2565b915050606083015161418f60608601826141cf565b5060808301516141a260808601826141cf565b5060a08301516141b560a08601826141cf565b508091505092915050565b6141c981614b76565b82525050565b6141d881614ba4565b82525050565b6141e781614ba4565b82525050565b6141f681614bae565b82525050565b61420581614bbe565b82525050565b600061421682613f51565b91506142228289613c64565b915061422d82613c95565b91506142398288613c64565b915061424482613e39565b91506142508287613c64565b915061425b82613fdd565b91506142678286613c64565b915061427282613dad565b915061427e8285613c64565b915061428982614000565b91506142958284613c64565b91506142a082613ec5565b9150819050979650505050505050565b60006142bb82613f97565b91506142c78284613c64565b915081905092915050565b60006020820190506142e76000830184613b17565b92915050565b60006040820190506143026000830185613b17565b61430f6020830184613b17565b9392505050565b600060808201905061432b6000830187613b17565b6143386020830186613b17565b61434560408301856141de565b81810360608301526143578184613bb9565b905095945050505050565b60006060820190506143776000830186613b17565b61438460208301856141de565b61439160408301846141de565b949350505050565b600060208201905081810360008301526143b38184613b26565b905092915050565b60006020820190506143d06000830184613b9b565b92915050565b600060a0820190506143eb6000830188613baa565b6143f860208301876141fc565b61440560408301866141c0565b61441260608301856141ed565b61441f60808301846141ed565b9695505050505050565b600060208201905081810360008301526144438184613c2b565b905092915050565b600060808201905081810360008301526144658187613c2b565b905081810360208301526144798186613c2b565b905061448860408301856141de565b818103606083015261449a8184613c2b565b905095945050505050565b600060808201905081810360008301526144bf8187613c2b565b905081810360208301526144d38186613c2b565b90506144e260408301856141de565b6144ef60608301846141de565b95945050505050565b600060a08201905081810360008301526145128188613c2b565b905081810360208301526145268187613c2b565b905061453560408301866141de565b61454260608301856141de565b61454f60808301846141de565b9695505050505050565b600060408201905081810360008301526145738185613c2b565b905061458260208301846141de565b9392505050565b600060608201905081810360008301526145a38186613c2b565b90506145b260208301856141de565b6145bf60408301846141de565b949350505050565b600060208201905081810360008301526145e081613cb8565b9050919050565b6000602082019050818103600083015261460081613cdb565b9050919050565b6000602082019050818103600083015261462081613cfe565b9050919050565b6000602082019050818103600083015261464081613d21565b9050919050565b6000602082019050818103600083015261466081613d44565b9050919050565b6000602082019050818103600083015261468081613d67565b9050919050565b600060208201905081810360008301526146a081613d8a565b9050919050565b600060208201905081810360008301526146c081613dd0565b9050919050565b600060208201905081810360008301526146e081613df3565b9050919050565b6000602082019050818103600083015261470081613e16565b9050919050565b6000602082019050818103600083015261472081613e5c565b9050919050565b6000602082019050818103600083015261474081613e7f565b9050919050565b6000602082019050818103600083015261476081613ea2565b9050919050565b6000602082019050818103600083015261478081613ee8565b9050919050565b600060208201905081810360008301526147a081613f0b565b9050919050565b600060208201905081810360008301526147c081613f2e565b9050919050565b600060208201905081810360008301526147e081613f74565b9050919050565b6000602082019050818103600083015261480081613fba565b9050919050565b600060208201905081810360008301526148218184614023565b905092915050565b600060208201905081810360008301526148438184614130565b905092915050565b600060208201905061486060008301846141de565b92915050565b600060c08201905061487b60008301896141de565b818103602083015261488d8188613c2b565b905081810360408301526148a18187613c2b565b90506148b060608301866141de565b6148bd60808301856141de565b6148ca60a08301846141de565b979650505050505050565b60006040820190506148ea60008301856141de565b6148f760208301846141de565b9392505050565b6000614908614919565b90506149148282614c46565b919050565b6000604051905090565b600067ffffffffffffffff82111561493e5761493d614d7e565b5b602082029050602081019050919050565b600067ffffffffffffffff82111561496a57614969614d7e565b5b61497382614dad565b9050602081019050919050565b6000819050602082019050919050565b600081519050919050565b600081519050919050565b600081519050919050565b6000602082019050919050565b600082825260208201905092915050565b600082825260208201905092915050565b600082825260208201905092915050565b600082825260208201905092915050565b600081905092915050565b6000614a1882614ba4565b9150614a2383614ba4565b9250827fffffffffffffffffffffffffffffffffffffffffffffffffffffffffffffffff03821115614a5857614a57614cf1565b5b828201905092915050565b6000614a6e82614ba4565b9150614a7983614ba4565b925082614a8957614a88614d20565b5b828204905092915050565b6000614a9f82614ba4565b9150614aaa83614ba4565b9250817fffffffffffffffffffffffffffffffffffffffffffffffffffffffffffffffff0483118215151615614ae357614ae2614cf1565b5b828202905092915050565b6000614af982614ba4565b9150614b0483614ba4565b925082821015614b1757614b16614cf1565b5b828203905092915050565b6000614b2d82614b84565b9050919050565b60008115159050919050565b6000819050919050565b60007fffffffff0000000000000000000000000000000000000000000000000000000082169050919050565b600061ffff82169050919050565b600073ffffffffffffffffffffffffffffffffffffffff82169050919050565b6000819050919050565b600063ffffffff82169050919050565b600067ffffffffffffffff82169050919050565b82818337600083830152505050565b60005b83811015614bff578082015181840152602081019050614be4565b83811115614c0e576000848401525b50505050565b60006002820490506001821680614c2c57607f821691505b60208210811415614c4057614c3f614d4f565b5b50919050565b614c4f82614dad565b810181811067ffffffffffffffff82111715614c6e57614c6d614d7e565b5b80604052505050565b6000614c8282614ba4565b91507fffffffffffffffffffffffffffffffffffffffffffffffffffffffffffffffff821415614cb557614cb4614cf1565b5b600182019050919050565b6000614ccb82614ba4565b9150614cd683614ba4565b925082614ce657614ce5614d20565b5b828206905092915050565b7f4e487b7100000000000000000000000000000000000000000000000000000000600052601160045260246000fd5b7f4e487b7100000000000000000000000000000000000000000000000000000000600052601260045260246000fd5b7f4e487b7100000000000000000000000000000000000000000000000000000000600052602260045260246000fd5b7f4e487b7100000000000000000000000000000000000000000000000000000000600052604160045260246000fd5b6000601f19601f8301169050919050565b7f202d2d204e465420233a20000000000000000000000000000000000000000000600082015250565b7f4572726f723a20636861726163746572206d757374206861766520485020746f60008201527f2061747461636b20626f73730000000000000000000000000000000000000000602082015250565b7f414c52454144595f4f574e535f4e465400000000000000000000000000000000600082015250565b7f4552433732313a207472616e7366657220746f206e6f6e20455243373231526560008201527f63656976657220696d706c656d656e7465720000000000000000000000000000602082015250565b7f4f776e61626c653a206e6577206f776e657220697320746865207a65726f206160008201527f6464726573730000000000000000000000000000000000000000000000000000602082015250565b7f4552433732313a207472616e736665722066726f6d20696e636f72726563742060008201527f6f776e6572000000000000000000000000000000000000000000000000000000602082015250565b7f4552433732313a20746f6b656e20616c7265616479206d696e74656400000000600082015250565b7f4572726f723a20626f7373206d757374206861766520485020746f206174746160008201527f636b20626f737300000000000000000000000000000000000000000000000000602082015250565b7f2c20226d61785f76616c7565223a000000000000000000000000000000000000600082015250565b7f4552433732313a207472616e7366657220746f20746865207a65726f2061646460008201527f7265737300000000000000000000000000000000000000000000000000000000602082015250565b7f4552433732313a20617070726f766520746f2063616c6c657200000000000000600082015250565b7f4552433732313a206f70657261746f7220717565727920666f72206e6f6e657860008201527f697374656e7420746f6b656e0000000000000000000000000000000000000000602082015250565b7f222c20226465736372697074696f6e223a20225468697320697320616e204e4660008201527f542074686174206c6574732070656f706c6520706c617920617320612073747260208201527f6f6e67204b617070612057617272696f7220696e20746865204d65746176657260408201527f7365222c2022696d616765223a20220000000000000000000000000000000000606082015250565b7f4552433732313a20617070726f76652063616c6c6572206973206e6f74206f7760008201527f6e6572206e6f7220617070726f76656420666f7220616c6c0000000000000000602082015250565b7f4552433732313a2062616c616e636520717565727920666f7220746865207a6560008201527f726f206164647265737300000000000000000000000000000000000000000000602082015250565b7f4552433732313a206f776e657220717565727920666f72206e6f6e657869737460008201527f656e7420746f6b656e0000000000000000000000000000000000000000000000602082015250565b7f7d205d7d00000000000000000000000000000000000000000000000000000000600082015250565b7f4552433732313a206d696e7420746f20746865207a65726f2061646472657373600082015250565b7f4552433732313a20617070726f76656420717565727920666f72206e6f6e657860008201527f697374656e7420746f6b656e0000000000000000000000000000000000000000602082015250565b7f4f776e61626c653a2063616c6c6572206973206e6f7420746865206f776e6572600082015250565b7f7b226e616d65223a202200000000000000000000000000000000000000000000600082015250565b7f4552433732313a20617070726f76616c20746f2063757272656e74206f776e6560008201527f7200000000000000000000000000000000000000000000000000000000000000602082015250565b7f646174613a6170706c69636174696f6e2f6a736f6e3b6261736536342c000000600082015250565b7f4552433732313a207472616e736665722063616c6c6572206973206e6f74206f60008201527f776e6572206e6f7220617070726f766564000000000000000000000000000000602082015250565b7f222c202261747472696275746573223a205b207b202274726169745f7479706560008201527f223a20224865616c746820506f696e7473222c202276616c7565223a20000000602082015250565b7f7d2c207b202274726169745f74797065223a202241747461636b2044616d616760008201527f65222c202276616c7565223a2000000000000000000000000000000000000000602082015250565b61549d81614b22565b81146154a857600080fd5b50565b6154b481614b34565b81146154bf57600080fd5b50565b6154cb81614b4a565b81146154d657600080fd5b50565b6154e281614ba4565b81146154ed57600080fd5b5056fe506c617965722061747461636b656420626f73732e206e657720626f73732068703a2025734d696e746564204e465420772f20746f6b656e496420257320616e6420636861726163746572696e6465782025734142434445464748494a4b4c4d4e4f505152535455565758595a6162636465666768696a6b6c6d6e6f707172737475767778797a303132333435363738392b2f426f73732061747461636b656420706c617965722e204e657720706c617965722068703a2025730a0a506c6179657220772f206368617261637465722025732061626f757420746f2061747461636b2e2048617320257320485020616e64202573204144a26469706673582212203cb06ba8499fe5d4c4891362486c560dc3ed02ffb6e1ad1f5e30cf39eea5383f64736f6c63430008040033446f6e6520696e697469616c697a696e6720257320772f2048502025732c20696d67202573446f6e6520696e697469616c697a696e6720626f737320257320772f2048502025732c20696d67202573",
  "linkReferences": {},
  "deployedLinkReferences": {}
}