{
  "_format": "hh-sol-artifact-1",
  "contractName": "MyEpicGame",
  "sourceName": "contracts/MyEpicGame.sol",
  "abi": [
    {
      "inputs": [
        {
          "internalType": "uint64",
          "name": "subscriptionId",
          "type": "uint64"
        },
        {
          "internalType": "string[]",
          "name": "characterNames",
          "type": "string[]"
        },
        {
          "internalType": "string[]",
          "name": "characterImageURIs",
          "type": "string[]"
        },
        {
          "internalType": "uint256[]",
          "name": "characterHp",
          "type": "uint256[]"
        },
        {
          "internalType": "uint256[]",
          "name": "characterAttackDmg",
          "type": "uint256[]"
        },
        {
          "internalType": "string",
          "name": "bossName",
          "type": "string"
        },
        {
          "internalType": "string",
          "name": "bossImageURI",
          "type": "string"
        },
        {
          "internalType": "uint256",
          "name": "bossHp",
          "type": "uint256"
        },
        {
          "internalType": "uint256",
          "name": "bossAttackDamage",
          "type": "uint256"
        }
      ],
      "stateMutability": "nonpayable",
      "type": "constructor"
    },
    {
      "inputs": [
        {
          "internalType": "address",
          "name": "have",
          "type": "address"
        },
        {
          "internalType": "address",
          "name": "want",
          "type": "address"
        }
      ],
      "name": "OnlyCoordinatorCanFulfill",
      "type": "error"
    },
    {
      "anonymous": false,
      "inputs": [
        {
          "indexed": true,
          "internalType": "address",
          "name": "owner",
          "type": "address"
        },
        {
          "indexed": true,
          "internalType": "address",
          "name": "approved",
          "type": "address"
        },
        {
          "indexed": true,
          "internalType": "uint256",
          "name": "tokenId",
          "type": "uint256"
        }
      ],
      "name": "Approval",
      "type": "event"
    },
    {
      "anonymous": false,
      "inputs": [
        {
          "indexed": true,
          "internalType": "address",
          "name": "owner",
          "type": "address"
        },
        {
          "indexed": true,
          "internalType": "address",
          "name": "operator",
          "type": "address"
        },
        {
          "indexed": false,
          "internalType": "bool",
          "name": "approved",
          "type": "bool"
        }
      ],
      "name": "ApprovalForAll",
      "type": "event"
    },
    {
      "anonymous": false,
      "inputs": [
        {
          "indexed": false,
          "internalType": "uint256",
          "name": "newBossHp",
          "type": "uint256"
        },
        {
          "indexed": false,
          "internalType": "uint256",
          "name": "newPlayerHp",
          "type": "uint256"
        }
      ],
      "name": "AttackComplete",
      "type": "event"
    },
    {
      "anonymous": false,
      "inputs": [
        {
          "indexed": false,
          "internalType": "address",
          "name": "sender",
          "type": "address"
        },
        {
          "indexed": false,
          "internalType": "uint256",
          "name": "tokenId",
          "type": "uint256"
        },
        {
          "indexed": false,
          "internalType": "uint256",
          "name": "characterIndex",
          "type": "uint256"
        }
      ],
      "name": "CharacterNFTMinted",
      "type": "event"
    },
    {
      "anonymous": false,
      "inputs": [
        {
          "indexed": true,
          "internalType": "address",
          "name": "previousOwner",
          "type": "address"
        },
        {
          "indexed": true,
          "internalType": "address",
          "name": "newOwner",
          "type": "address"
        }
      ],
      "name": "OwnershipTransferred",
      "type": "event"
    },
    {
      "anonymous": false,
      "inputs": [
        {
          "indexed": true,
          "internalType": "address",
          "name": "from",
          "type": "address"
        },
        {
          "indexed": true,
          "internalType": "address",
          "name": "to",
          "type": "address"
        },
        {
          "indexed": true,
          "internalType": "uint256",
          "name": "tokenId",
          "type": "uint256"
        }
      ],
      "name": "Transfer",
      "type": "event"
    },
    {
      "inputs": [
        {
          "internalType": "address",
          "name": "to",
          "type": "address"
        },
        {
          "internalType": "uint256",
          "name": "tokenId",
          "type": "uint256"
        }
      ],
      "name": "approve",
      "outputs": [],
      "stateMutability": "nonpayable",
      "type": "function"
    },
    {
      "inputs": [],
      "name": "attackBoss",
      "outputs": [],
      "stateMutability": "nonpayable",
      "type": "function"
    },
    {
      "inputs": [
        {
          "internalType": "address",
          "name": "owner",
          "type": "address"
        }
      ],
      "name": "balanceOf",
      "outputs": [
        {
          "internalType": "uint256",
          "name": "",
          "type": "uint256"
        }
      ],
      "stateMutability": "view",
      "type": "function"
    },
    {
      "inputs": [],
      "name": "bigBoss",
      "outputs": [
        {
          "internalType": "string",
          "name": "name",
          "type": "string"
        },
        {
          "internalType": "string",
          "name": "imageURI",
          "type": "string"
        },
        {
          "internalType": "uint256",
          "name": "hp",
          "type": "uint256"
        },
        {
          "internalType": "uint256",
          "name": "maxHp",
          "type": "uint256"
        },
        {
          "internalType": "uint256",
          "name": "attackDamage",
          "type": "uint256"
        }
      ],
      "stateMutability": "view",
      "type": "function"
    },
    {
      "inputs": [],
      "name": "checkIfUserHasNFT",
      "outputs": [
        {
          "components": [
            {
              "internalType": "uint256",
              "name": "characterIndex",
              "type": "uint256"
            },
            {
              "internalType": "string",
              "name": "name",
              "type": "string"
            },
            {
              "internalType": "string",
              "name": "imageURI",
              "type": "string"
            },
            {
              "internalType": "uint256",
              "name": "hp",
              "type": "uint256"
            },
            {
              "internalType": "uint256",
              "name": "maxHp",
              "type": "uint256"
            },
            {
              "internalType": "uint256",
              "name": "attackDamage",
              "type": "uint256"
            }
          ],
          "internalType": "struct MyEpicGame.CharacterAttributes",
          "name": "",
          "type": "tuple"
        }
      ],
      "stateMutability": "view",
      "type": "function"
    },
    {
      "inputs": [],
      "name": "getAllDefaultCharacters",
      "outputs": [
        {
          "components": [
            {
              "internalType": "uint256",
              "name": "characterIndex",
              "type": "uint256"
            },
            {
              "internalType": "string",
              "name": "name",
              "type": "string"
            },
            {
              "internalType": "string",
              "name": "imageURI",
              "type": "string"
            },
            {
              "internalType": "uint256",
              "name": "hp",
              "type": "uint256"
            },
            {
              "internalType": "uint256",
              "name": "maxHp",
              "type": "uint256"
            },
            {
              "internalType": "uint256",
              "name": "attackDamage",
              "type": "uint256"
            }
          ],
          "internalType": "struct MyEpicGame.CharacterAttributes[]",
          "name": "",
          "type": "tuple[]"
        }
      ],
      "stateMutability": "view",
      "type": "function"
    },
    {
      "inputs": [
        {
          "internalType": "uint256",
          "name": "tokenId",
          "type": "uint256"
        }
      ],
      "name": "getApproved",
      "outputs": [
        {
          "internalType": "address",
          "name": "",
          "type": "address"
        }
      ],
      "stateMutability": "view",
      "type": "function"
    },
    {
      "inputs": [],
      "name": "getBigBoss",
      "outputs": [
        {
          "components": [
            {
              "internalType": "string",
              "name": "name",
              "type": "string"
            },
            {
              "internalType": "string",
              "name": "imageURI",
              "type": "string"
            },
            {
              "internalType": "uint256",
              "name": "hp",
              "type": "uint256"
            },
            {
              "internalType": "uint256",
              "name": "maxHp",
              "type": "uint256"
            },
            {
              "internalType": "uint256",
              "name": "attackDamage",
              "type": "uint256"
            }
          ],
          "internalType": "struct MyEpicGame.BigBoss",
          "name": "",
          "type": "tuple"
        }
      ],
      "stateMutability": "view",
      "type": "function"
    },
    {
      "inputs": [],
      "name": "getPlayers",
      "outputs": [
        {
          "components": [
            {
              "internalType": "uint256",
              "name": "characterIndex",
              "type": "uint256"
            },
            {
              "internalType": "string",
              "name": "name",
              "type": "string"
            },
            {
              "internalType": "string",
              "name": "imageURI",
              "type": "string"
            },
            {
              "internalType": "uint256",
              "name": "hp",
              "type": "uint256"
            },
            {
              "internalType": "uint256",
              "name": "maxHp",
              "type": "uint256"
            },
            {
              "internalType": "uint256",
              "name": "attackDamage",
              "type": "uint256"
            }
          ],
          "internalType": "struct MyEpicGame.CharacterAttributes[]",
          "name": "",
          "type": "tuple[]"
        }
      ],
      "stateMutability": "view",
      "type": "function"
    },
    {
      "inputs": [
        {
          "internalType": "address",
          "name": "owner",
          "type": "address"
        },
        {
          "internalType": "address",
          "name": "operator",
          "type": "address"
        }
      ],
      "name": "isApprovedForAll",
      "outputs": [
        {
          "internalType": "bool",
          "name": "",
          "type": "bool"
        }
      ],
      "stateMutability": "view",
      "type": "function"
    },
    {
      "inputs": [
        {
          "internalType": "uint256",
          "name": "_characterIndex",
          "type": "uint256"
        }
      ],
      "name": "mintCharacterNFT",
      "outputs": [],
      "stateMutability": "nonpayable",
      "type": "function"
    },
    {
      "inputs": [],
      "name": "name",
      "outputs": [
        {
          "internalType": "string",
          "name": "",
          "type": "string"
        }
      ],
      "stateMutability": "view",
      "type": "function"
    },
    {
      "inputs": [
        {
          "internalType": "uint256",
          "name": "",
          "type": "uint256"
        }
      ],
      "name": "nftHolderAttributes",
      "outputs": [
        {
          "internalType": "uint256",
          "name": "characterIndex",
          "type": "uint256"
        },
        {
          "internalType": "string",
          "name": "name",
          "type": "string"
        },
        {
          "internalType": "string",
          "name": "imageURI",
          "type": "string"
        },
        {
          "internalType": "uint256",
          "name": "hp",
          "type": "uint256"
        },
        {
          "internalType": "uint256",
          "name": "maxHp",
          "type": "uint256"
        },
        {
          "internalType": "uint256",
          "name": "attackDamage",
          "type": "uint256"
        }
      ],
      "stateMutability": "view",
      "type": "function"
    },
    {
      "inputs": [
        {
          "internalType": "address",
          "name": "",
          "type": "address"
        }
      ],
      "name": "nftHolders",
      "outputs": [
        {
          "internalType": "uint256",
          "name": "",
          "type": "uint256"
        }
      ],
      "stateMutability": "view",
      "type": "function"
    },
    {
      "inputs": [],
      "name": "owner",
      "outputs": [
        {
          "internalType": "address",
          "name": "",
          "type": "address"
        }
      ],
      "stateMutability": "view",
      "type": "function"
    },
    {
      "inputs": [
        {
          "internalType": "uint256",
          "name": "tokenId",
          "type": "uint256"
        }
      ],
      "name": "ownerOf",
      "outputs": [
        {
          "internalType": "address",
          "name": "",
          "type": "address"
        }
      ],
      "stateMutability": "view",
      "type": "function"
    },
    {
      "inputs": [
        {
          "internalType": "uint256",
          "name": "requestId",
          "type": "uint256"
        },
        {
          "internalType": "uint256[]",
          "name": "randomWords",
          "type": "uint256[]"
        }
      ],
      "name": "rawFulfillRandomWords",
      "outputs": [],
      "stateMutability": "nonpayable",
      "type": "function"
    },
    {
      "inputs": [],
      "name": "renounceOwnership",
      "outputs": [],
      "stateMutability": "nonpayable",
      "type": "function"
    },
    {
      "inputs": [
        {
          "internalType": "uint256",
          "name": "",
          "type": "uint256"
        }
      ],
      "name": "s_randomWords",
      "outputs": [
        {
          "internalType": "uint256",
          "name": "",
          "type": "uint256"
        }
      ],
      "stateMutability": "view",
      "type": "function"
    },
    {
      "inputs": [
        {
          "internalType": "address",
          "name": "from",
          "type": "address"
        },
        {
          "internalType": "address",
          "name": "to",
          "type": "address"
        },
        {
          "internalType": "uint256",
          "name": "tokenId",
          "type": "uint256"
        }
      ],
      "name": "safeTransferFrom",
      "outputs": [],
      "stateMutability": "nonpayable",
      "type": "function"
    },
    {
      "inputs": [
        {
          "internalType": "address",
          "name": "from",
          "type": "address"
        },
        {
          "internalType": "address",
          "name": "to",
          "type": "address"
        },
        {
          "internalType": "uint256",
          "name": "tokenId",
          "type": "uint256"
        },
        {
          "internalType": "bytes",
          "name": "_data",
          "type": "bytes"
        }
      ],
      "name": "safeTransferFrom",
      "outputs": [],
      "stateMutability": "nonpayable",
      "type": "function"
    },
    {
      "inputs": [
        {
          "internalType": "address",
          "name": "operator",
          "type": "address"
        },
        {
          "internalType": "bool",
          "name": "approved",
          "type": "bool"
        }
      ],
      "name": "setApprovalForAll",
      "outputs": [],
      "stateMutability": "nonpayable",
      "type": "function"
    },
    {
      "inputs": [
        {
          "internalType": "bytes4",
          "name": "interfaceId",
          "type": "bytes4"
        }
      ],
      "name": "supportsInterface",
      "outputs": [
        {
          "internalType": "bool",
          "name": "",
          "type": "bool"
        }
      ],
      "stateMutability": "view",
      "type": "function"
    },
    {
      "inputs": [],
      "name": "symbol",
      "outputs": [
        {
          "internalType": "string",
          "name": "",
          "type": "string"
        }
      ],
      "stateMutability": "view",
      "type": "function"
    },
    {
      "inputs": [
        {
          "internalType": "uint256",
          "name": "_tokenId",
          "type": "uint256"
        }
      ],
      "name": "tokenURI",
      "outputs": [
        {
          "internalType": "string",
          "name": "",
          "type": "string"
        }
      ],
      "stateMutability": "view",
      "type": "function"
    },
    {
      "inputs": [
        {
          "internalType": "address",
          "name": "from",
          "type": "address"
        },
        {
          "internalType": "address",
          "name": "to",
          "type": "address"
        },
        {
          "internalType": "uint256",
          "name": "tokenId",
          "type": "uint256"
        }
      ],
      "name": "transferFrom",
      "outputs": [],
      "stateMutability": "nonpayable",
      "type": "function"
    },
    {
      "inputs": [
        {
          "internalType": "address",
          "name": "newOwner",
          "type": "address"
        }
      ],
      "name": "transferOwnership",
      "outputs": [],
      "stateMutability": "nonpayable",
      "type": "function"
    }
  ],
  "bytecode": "0x60a0604052736168499c0cffcacd319c818142124b7a15e857ab601360006101000a81548173ffffffffffffffffffffffffffffffffffffffff021916908373ffffffffffffffffffffffffffffffffffffffff1602179055507fd89b2bf150e3b9e13446986e571fb9cab24b13cea0a43ea20a6049a85cc807cc60001b601455620186a0601560006101000a81548163ffffffff021916908363ffffffff1602179055506003601560046101000a81548161ffff021916908361ffff1602179055506002601560066101000a81548163ffffffff021916908363ffffffff160217905550348015620000f157600080fd5b50604051620068c3380380620068c3833981810160405281019062000117919062000d51565b601360009054906101000a900473ffffffffffffffffffffffffffffffffffffffff166040518060400160405280600d81526020017f4b61707061204c6567656e6473000000000000000000000000000000000000008152506040518060400160405280600581526020017f4b415050410000000000000000000000000000000000000000000000000000008152508160009080519060200190620001be92919062000aa2565b508060019080519060200190620001d792919062000aa2565b5050508073ffffffffffffffffffffffffffffffffffffffff1660808173ffffffffffffffffffffffffffffffffffffffff1660601b81525050506200023262000226620008e960201b60201c565b620008f160201b60201c565b601360009054906101000a900473ffffffffffffffffffffffffffffffffffffffff16600d60006101000a81548173ffffffffffffffffffffffffffffffffffffffff021916908373ffffffffffffffffffffffffffffffffffffffff16021790555088601060006101000a81548167ffffffffffffffff021916908367ffffffffffffffff1602179055506040518060a0016040528085815260200184815260200183815260200183815260200182815250600860008201518160000190805190602001906200030592919062000aa2565b5060208201518160010190805190602001906200032492919062000aa2565b50604082015181600201556060820151816003015560808201518160040155905050620004a76040518060600160405280602a815260200162006899602a9139600860000180546200037690620010a1565b80601f0160208091040260200160405190810160405280929190818152602001828054620003a490620010a1565b8015620003f55780601f10620003c957610100808354040283529160200191620003f5565b820191906000526020600020905b815481529060010190602001808311620003d757829003601f168201915b5050505050600860020154600860010180546200041290620010a1565b80601f01602080910402602001604051908101604052809291908181526020018280546200044090620010a1565b8015620004915780601f10620004655761010080835404028352916020019162000491565b820191906000526020600020905b8154815290600101906020018083116200047357829003601f168201915b5050505050620009b760201b620023c31760201c565b60005b8851811015620008c257600e6040518060c001604052808381526020018b848151811062000501577f4e487b7100000000000000000000000000000000000000000000000000000000600052603260045260246000fd5b602002602001015181526020018a848151811062000548577f4e487b7100000000000000000000000000000000000000000000000000000000600052603260045260246000fd5b602002602001015181526020018984815181106200058f577f4e487b7100000000000000000000000000000000000000000000000000000000600052603260045260246000fd5b60200260200101518152602001898481518110620005d6577f4e487b7100000000000000000000000000000000000000000000000000000000600052603260045260246000fd5b602002602001015181526020018884815181106200061d577f4e487b7100000000000000000000000000000000000000000000000000000000600052603260045260246000fd5b602002602001015181525090806001815401808255809150506001900390600052602060002090600602016000909190919091506000820151816000015560208201518160010190805190602001906200067992919062000aa2565b5060408201518160020190805190602001906200069892919062000aa2565b50606082015181600301556080820151816004015560a0820151816005015550506000600e8281548110620006f6577f4e487b7100000000000000000000000000000000000000000000000000000000600052603260045260246000fd5b90600052602060002090600602016040518060c0016040529081600082015481526020016001820180546200072b90620010a1565b80601f01602080910402602001604051908101604052809291908181526020018280546200075990620010a1565b8015620007aa5780601f106200077e57610100808354040283529160200191620007aa565b820191906000526020600020905b8154815290600101906020018083116200078c57829003601f168201915b50505050508152602001600282018054620007c590620010a1565b80601f0160208091040260200160405190810160405280929190818152602001828054620007f390620010a1565b8015620008445780601f10620008185761010080835404028352916020019162000844565b820191906000526020600020905b8154815290600101906020018083116200082657829003601f168201915b5050505050815260200160038201548152602001600482015481526020016005820154815250509050620008ab6040518060600160405280602581526020016200687460259139826020015183606001518460400151620009b760201b620023c31760201c565b508080620008b9906200110d565b915050620004aa565b50620008da600762000a6360201b620024651760201c565b5050505050505050506200122d565b600033905090565b6000600660009054906101000a900473ffffffffffffffffffffffffffffffffffffffff16905081600660006101000a81548173ffffffffffffffffffffffffffffffffffffffff021916908373ffffffffffffffffffffffffffffffffffffffff1602179055508173ffffffffffffffffffffffffffffffffffffffff168173ffffffffffffffffffffffffffffffffffffffff167f8be0079c531659141344cd1fd0a4f28419497f9722a3daafe3b4186f6b6457e060405160405180910390a35050565b62000a5d84848484604051602401620009d4949392919062000f12565b6040516020818303038152906040527f8d142cdd000000000000000000000000000000000000000000000000000000007bffffffffffffffffffffffffffffffffffffffffffffffffffffffff19166020820180517bffffffffffffffffffffffffffffffffffffffffffffffffffffffff838183161783525050505062000a7960201b60201c565b50505050565b6001816000016000828254019250508190555050565b60008151905060006a636f6e736f6c652e6c6f679050602083016000808483855afa5050505050565b82805462000ab090620010a1565b90600052602060002090601f01602090048101928262000ad4576000855562000b20565b82601f1062000aef57805160ff191683800117855562000b20565b8280016001018555821562000b20579182015b8281111562000b1f57825182559160200191906001019062000b02565b5b50905062000b2f919062000b33565b5090565b5b8082111562000b4e57600081600090555060010162000b34565b5090565b600062000b6962000b638462000f9d565b62000f74565b9050808382526020820190508285602086028201111562000b8957600080fd5b60005b8581101562000bd857815167ffffffffffffffff81111562000bad57600080fd5b80860162000bbc898262000cf6565b8552602085019450602084019350505060018101905062000b8c565b5050509392505050565b600062000bf962000bf38462000fcc565b62000f74565b9050808382526020820190508285602086028201111562000c1957600080fd5b60005b8581101562000c4d578162000c32888262000d23565b84526020840193506020830192505060018101905062000c1c565b5050509392505050565b600062000c6e62000c688462000ffb565b62000f74565b90508281526020810184848401111562000c8757600080fd5b62000c948482856200106b565b509392505050565b600082601f83011262000cae57600080fd5b815162000cc084826020860162000b52565b91505092915050565b600082601f83011262000cdb57600080fd5b815162000ced84826020860162000be2565b91505092915050565b600082601f83011262000d0857600080fd5b815162000d1a84826020860162000c57565b91505092915050565b60008151905062000d3481620011f9565b92915050565b60008151905062000d4b8162001213565b92915050565b60008060008060008060008060006101208a8c03121562000d7157600080fd5b600062000d818c828d0162000d3a565b99505060208a015167ffffffffffffffff81111562000d9f57600080fd5b62000dad8c828d0162000c9c565b98505060408a015167ffffffffffffffff81111562000dcb57600080fd5b62000dd98c828d0162000c9c565b97505060608a015167ffffffffffffffff81111562000df757600080fd5b62000e058c828d0162000cc9565b96505060808a015167ffffffffffffffff81111562000e2357600080fd5b62000e318c828d0162000cc9565b95505060a08a015167ffffffffffffffff81111562000e4f57600080fd5b62000e5d8c828d0162000cf6565b94505060c08a015167ffffffffffffffff81111562000e7b57600080fd5b62000e898c828d0162000cf6565b93505060e062000e9c8c828d0162000d23565b92505061010062000eb08c828d0162000d23565b9150509295985092959850929598565b600062000ecd8262001031565b62000ed981856200103c565b935062000eeb8185602086016200106b565b62000ef681620011e8565b840191505092915050565b62000f0c816200104d565b82525050565b6000608082019050818103600083015262000f2e818762000ec0565b9050818103602083015262000f44818662000ec0565b905062000f55604083018562000f01565b818103606083015262000f69818462000ec0565b905095945050505050565b600062000f8062000f93565b905062000f8e8282620010d7565b919050565b6000604051905090565b600067ffffffffffffffff82111562000fbb5762000fba620011b9565b5b602082029050602081019050919050565b600067ffffffffffffffff82111562000fea5762000fe9620011b9565b5b602082029050602081019050919050565b600067ffffffffffffffff821115620010195762001018620011b9565b5b6200102482620011e8565b9050602081019050919050565b600081519050919050565b600082825260208201905092915050565b6000819050919050565b600067ffffffffffffffff82169050919050565b60005b838110156200108b5780820151818401526020810190506200106e565b838111156200109b576000848401525b50505050565b60006002820490506001821680620010ba57607f821691505b60208210811415620010d157620010d06200118a565b5b50919050565b620010e282620011e8565b810181811067ffffffffffffffff82111715620011045762001103620011b9565b5b80604052505050565b60006200111a826200104d565b91507fffffffffffffffffffffffffffffffffffffffffffffffffffffffffffffffff82141562001150576200114f6200115b565b5b600182019050919050565b7f4e487b7100000000000000000000000000000000000000000000000000000000600052601160045260246000fd5b7f4e487b7100000000000000000000000000000000000000000000000000000000600052602260045260246000fd5b7f4e487b7100000000000000000000000000000000000000000000000000000000600052604160045260246000fd5b6000601f19601f8301169050919050565b62001204816200104d565b81146200121057600080fd5b50565b6200121e8162001057565b81146200122a57600080fd5b50565b60805160601c61562162001253600039600081816109ba0152610a0e01526156216000f3fe608060405234801561001057600080fd5b50600436106101a95760003560e01c80638da5cb5b116100f9578063c87b56dd11610097578063e985e9c511610071578063e985e9c5146104b3578063f2fde38b146104e3578063f6eaffc8146104ff578063f8b81ef71461052f576101a9565b8063c87b56dd1461045b578063c8cf27f41461048b578063d4f24c5b146104a9576101a9565b8063a22cb465116100d3578063a22cb465146103e3578063a9c32679146103ff578063b88d4fde14610421578063b953084e1461043d576101a9565b80638da5cb5b1461037257806395d89b411461039057806398da4c95146103ae576101a9565b806323b872dd1161016657806370a082311161014057806370a08231146102ea578063715018a61461031a5780637df124a1146103245780638b5b9ccc14610354576101a9565b806323b872dd1461028257806342842e0e1461029e5780636352211e146102ba576101a9565b806301ffc9a7146101ae5780630665f961146101de57806306fdde03146101fc578063081812fc1461021a578063095ea7b31461024a5780631fe543e314610266575b600080fd5b6101c860048036038101906101c39190613a0f565b61054b565b6040516101d591906143bf565b60405180910390f35b6101e661062d565b6040516101f3919061480b565b60405180910390f35b610204610789565b604051610211919061442d565b60405180910390f35b610234600480360381019061022f9190613a61565b61081b565b60405161024191906142d6565b60405180910390f35b610264600480360381019061025f91906139d3565b6108a0565b005b610280600480360381019061027b9190613ab3565b6109b8565b005b61029c600480360381019061029791906138cd565b610a78565b005b6102b860048036038101906102b391906138cd565b610ad8565b005b6102d460048036038101906102cf9190613a61565b610af8565b6040516102e191906142d6565b60405180910390f35b61030460048036038101906102ff9190613868565b610baa565b604051610311919061484f565b60405180910390f35b610322610c62565b005b61033e60048036038101906103399190613868565b610cea565b60405161034b919061484f565b60405180910390f35b61035c610d02565b604051610369919061439d565b60405180910390f35b61037a610f7d565b60405161038791906142d6565b60405180910390f35b610398610fa7565b6040516103a5919061442d565b60405180910390f35b6103c860048036038101906103c39190613a61565b611039565b6040516103da9695949392919061486a565b60405180910390f35b6103fd60048036038101906103f89190613997565b611185565b005b61040761119b565b6040516104189594939291906144fc565b60405180910390f35b61043b6004803603810190610436919061391c565b6112cf565b005b610445611331565b604051610452919061439d565b60405180910390f35b61047560048036038101906104709190613a61565b6114dc565b604051610482919061442d565b60405180910390f35b6104936116f7565b6040516104a0919061482d565b60405180910390f35b6104b16118cf565b005b6104cd60048036038101906104c89190613891565b611d9d565b6040516104da91906143bf565b60405180910390f35b6104fd60048036038101906104f89190613868565b611e31565b005b61051960048036038101906105149190613a61565b611f29565b604051610526919061484f565b60405180910390f35b61054960048036038101906105449190613a61565b611f4d565b005b60007f80ac58cd000000000000000000000000000000000000000000000000000000007bffffffffffffffffffffffffffffffffffffffffffffffffffffffff1916827bffffffffffffffffffffffffffffffffffffffffffffffffffffffff1916148061061657507f5b5e139f000000000000000000000000000000000000000000000000000000007bffffffffffffffffffffffffffffffffffffffffffffffffffffffff1916827bffffffffffffffffffffffffffffffffffffffffffffffffffffffff1916145b8061062657506106258261247b565b5b9050919050565b610635613597565b60086040518060a001604052908160008201805461065290614c18565b80601f016020809104026020016040519081016040528092919081815260200182805461067e90614c18565b80156106cb5780601f106106a0576101008083540402835291602001916106cb565b820191906000526020600020905b8154815290600101906020018083116106ae57829003601f168201915b505050505081526020016001820180546106e490614c18565b80601f016020809104026020016040519081016040528092919081815260200182805461071090614c18565b801561075d5780601f106107325761010080835404028352916020019161075d565b820191906000526020600020905b81548152906001019060200180831161074057829003601f168201915b505050505081526020016002820154815260200160038201548152602001600482015481525050905090565b60606000805461079890614c18565b80601f01602080910402602001604051908101604052809291908181526020018280546107c490614c18565b80156108115780601f106107e657610100808354040283529160200191610811565b820191906000526020600020905b8154815290600101906020018083116107f457829003601f168201915b5050505050905090565b6000610826826124e5565b610865576040517f08c379a000000000000000000000000000000000000000000000000000000000815260040161085c9061478b565b60405180910390fd5b6004600083815260200190815260200160002060009054906101000a900473ffffffffffffffffffffffffffffffffffffffff169050919050565b60006108ab82610af8565b90508073ffffffffffffffffffffffffffffffffffffffff168373ffffffffffffffffffffffffffffffffffffffff16141561091c576040517f08c379a0000000000000000000000000000000000000000000000000000000008152600401610913906147cb565b60405180910390fd5b8073ffffffffffffffffffffffffffffffffffffffff1661093b612551565b73ffffffffffffffffffffffffffffffffffffffff16148061096a575061096981610964612551565b611d9d565b5b6109a9576040517f08c379a00000000000000000000000000000000000000000000000000000000081526004016109a09061470b565b60405180910390fd5b6109b38383612559565b505050565b7f000000000000000000000000000000000000000000000000000000000000000073ffffffffffffffffffffffffffffffffffffffff163373ffffffffffffffffffffffffffffffffffffffff1614610a6a57337f00000000000000000000000000000000000000000000000000000000000000006040517f1cf993f4000000000000000000000000000000000000000000000000000000008152600401610a619291906142f1565b60405180910390fd5b610a748282612612565b5050565b610a89610a83612551565b8261262d565b610ac8576040517f08c379a0000000000000000000000000000000000000000000000000000000008152600401610abf906147eb565b60405180910390fd5b610ad383838361270b565b505050565b610af3838383604051806020016040528060008152506112cf565b505050565b6000806002600084815260200190815260200160002060009054906101000a900473ffffffffffffffffffffffffffffffffffffffff169050600073ffffffffffffffffffffffffffffffffffffffff168173ffffffffffffffffffffffffffffffffffffffff161415610ba1576040517f08c379a0000000000000000000000000000000000000000000000000000000008152600401610b989061474b565b60405180910390fd5b80915050919050565b60008073ffffffffffffffffffffffffffffffffffffffff168273ffffffffffffffffffffffffffffffffffffffff161415610c1b576040517f08c379a0000000000000000000000000000000000000000000000000000000008152600401610c129061472b565b60405180910390fd5b600360008373ffffffffffffffffffffffffffffffffffffffff1673ffffffffffffffffffffffffffffffffffffffff168152602001908152602001600020549050919050565b610c6a612551565b73ffffffffffffffffffffffffffffffffffffffff16610c88610f7d565b73ffffffffffffffffffffffffffffffffffffffff1614610cde576040517f08c379a0000000000000000000000000000000000000000000000000000000008152600401610cd5906147ab565b60405180910390fd5b610ce86000612972565b565b60126020528060005260406000206000915090505481565b606060006001610d126007612a38565b610d1c9190614af2565b905060008167ffffffffffffffff811115610d60577f4e487b7100000000000000000000000000000000000000000000000000000000600052604160045260246000fd5b604051908082528060200260200182016040528015610d9957816020015b610d866135c6565b815260200190600190039081610d7e5790505b50905060005b82811015610f745760116000600183610db89190614a11565b81526020019081526020016000206040518060c001604052908160008201548152602001600182018054610deb90614c18565b80601f0160208091040260200160405190810160405280929190818152602001828054610e1790614c18565b8015610e645780601f10610e3957610100808354040283529160200191610e64565b820191906000526020600020905b815481529060010190602001808311610e4757829003601f168201915b50505050508152602001600282018054610e7d90614c18565b80601f0160208091040260200160405190810160405280929190818152602001828054610ea990614c18565b8015610ef65780601f10610ecb57610100808354040283529160200191610ef6565b820191906000526020600020905b815481529060010190602001808311610ed957829003601f168201915b505050505081526020016003820154815260200160048201548152602001600582015481525050828281518110610f56577f4e487b7100000000000000000000000000000000000000000000000000000000600052603260045260246000fd5b60200260200101819052508080610f6c90614c7b565b915050610d9f565b50809250505090565b6000600660009054906101000a900473ffffffffffffffffffffffffffffffffffffffff16905090565b606060018054610fb690614c18565b80601f0160208091040260200160405190810160405280929190818152602001828054610fe290614c18565b801561102f5780601f106110045761010080835404028352916020019161102f565b820191906000526020600020905b81548152906001019060200180831161101257829003601f168201915b5050505050905090565b601160205280600052604060002060009150905080600001549080600101805461106290614c18565b80601f016020809104026020016040519081016040528092919081815260200182805461108e90614c18565b80156110db5780601f106110b0576101008083540402835291602001916110db565b820191906000526020600020905b8154815290600101906020018083116110be57829003601f168201915b5050505050908060020180546110f090614c18565b80601f016020809104026020016040519081016040528092919081815260200182805461111c90614c18565b80156111695780601f1061113e57610100808354040283529160200191611169565b820191906000526020600020905b81548152906001019060200180831161114c57829003601f168201915b5050505050908060030154908060040154908060050154905086565b611197611190612551565b8383612a46565b5050565b60088060000180546111ac90614c18565b80601f01602080910402602001604051908101604052809291908181526020018280546111d890614c18565b80156112255780601f106111fa57610100808354040283529160200191611225565b820191906000526020600020905b81548152906001019060200180831161120857829003601f168201915b50505050509080600101805461123a90614c18565b80601f016020809104026020016040519081016040528092919081815260200182805461126690614c18565b80156112b35780601f10611288576101008083540402835291602001916112b3565b820191906000526020600020905b81548152906001019060200180831161129657829003601f168201915b5050505050908060020154908060030154908060040154905085565b6112e06112da612551565b8361262d565b61131f576040517f08c379a0000000000000000000000000000000000000000000000000000000008152600401611316906147eb565b60405180910390fd5b61132b84848484612bb3565b50505050565b6060600e805480602002602001604051908101604052809291908181526020016000905b828210156114d357838290600052602060002090600602016040518060c00160405290816000820154815260200160018201805461139290614c18565b80601f01602080910402602001604051908101604052809291908181526020018280546113be90614c18565b801561140b5780601f106113e05761010080835404028352916020019161140b565b820191906000526020600020905b8154815290600101906020018083116113ee57829003601f168201915b5050505050815260200160028201805461142490614c18565b80601f016020809104026020016040519081016040528092919081815260200182805461145090614c18565b801561149d5780601f106114725761010080835404028352916020019161149d565b820191906000526020600020905b81548152906001019060200180831161148057829003601f168201915b50505050508152602001600382015481526020016004820154815260200160058201548152505081526020019060010190611355565b50505050905090565b60606000601160008481526020019081526020016000206040518060c00160405290816000820154815260200160018201805461151890614c18565b80601f016020809104026020016040519081016040528092919081815260200182805461154490614c18565b80156115915780601f1061156657610100808354040283529160200191611591565b820191906000526020600020905b81548152906001019060200180831161157457829003601f168201915b505050505081526020016002820180546115aa90614c18565b80601f01602080910402602001604051908101604052809291908181526020018280546115d690614c18565b80156116235780601f106115f857610100808354040283529160200191611623565b820191906000526020600020905b81548152906001019060200180831161160657829003601f168201915b5050505050815260200160038201548152602001600482015481526020016005820154815250509050600061165b8260600151612c0f565b9050600061166c8360800151612c0f565b9050600061167d8460a00151612c0f565b905060006116c3856020015161169289612c0f565b87604001518787876040516020016116af9695949392919061420f565b604051602081830303815290604052612dbc565b90506000816040516020016116d891906142b4565b6040516020818303038152906040529050809650505050505050919050565b6116ff6135c6565b6000601260003373ffffffffffffffffffffffffffffffffffffffff1673ffffffffffffffffffffffffffffffffffffffff16815260200190815260200160002054905060008111156118be57601160008281526020019081526020016000206040518060c00160405290816000820154815260200160018201805461178490614c18565b80601f01602080910402602001604051908101604052809291908181526020018280546117b090614c18565b80156117fd5780601f106117d2576101008083540402835291602001916117fd565b820191906000526020600020905b8154815290600101906020018083116117e057829003601f168201915b5050505050815260200160028201805461181690614c18565b80601f016020809104026020016040519081016040528092919081815260200182805461184290614c18565b801561188f5780601f106118645761010080835404028352916020019161188f565b820191906000526020600020905b81548152906001019060200180831161187257829003601f168201915b5050505050815260200160038201548152602001600482015481526020016005820154815250509150506118cc565b6118c66135c6565b80925050505b90565b600060016064600d60009054906101000a900473ffffffffffffffffffffffffffffffffffffffff1673ffffffffffffffffffffffffffffffffffffffff16635d3b1d30601454601060009054906101000a900467ffffffffffffffff16601560049054906101000a900461ffff16601560009054906101000a900463ffffffff16601560069054906101000a900463ffffffff166040518663ffffffff1660e01b81526004016119849594939291906143da565b602060405180830381600087803b15801561199e57600080fd5b505af11580156119b2573d6000803e3d6000fd5b505050506040513d601f19601f820116820180604052508101906119d69190613a8a565b6119e09190614cc4565b6119ea9190614a11565b90506000601260003373ffffffffffffffffffffffffffffffffffffffff1673ffffffffffffffffffffffffffffffffffffffff1681526020019081526020016000205490506000601160008381526020019081526020016000209050611aff6040518060600160405280603c81526020016155b0603c9139826001018054611a7290614c18565b80601f0160208091040260200160405190810160405280929190818152602001828054611a9e90614c18565b8015611aeb5780601f10611ac057610100808354040283529160200191611aeb565b820191906000526020600020905b815481529060010190602001808311611ace57829003601f168201915b505050505083600301548460050154612f7a565b611bd76040518060400160405280601b81526020017f426f73732025732068617320257320485020616e64202573204144000000000081525060086000018054611b4890614c18565b80601f0160208091040260200160405190810160405280929190818152602001828054611b7490614c18565b8015611bc15780601f10611b9657610100808354040283529160200191611bc1565b820191906000526020600020905b815481529060010190602001808311611ba457829003601f168201915b5050505050600860020154600860040154612f7a565b6000816003015411611c1e576040517f08c379a0000000000000000000000000000000000000000000000000000000008152600401611c15906145cb565b60405180910390fd5b600060086002015411611c66576040517f08c379a0000000000000000000000000000000000000000000000000000000008152600401611c5d9061468b565b60405180910390fd5b80600501546008600201541015611c87576000600860020181905550611ccb565b6000603b8411611c98576000611c9b565b601e5b60ff169050808260050154611cb09190614a11565b600860020154611cc09190614af2565b600860020181905550505b60086004015481600301541015611ceb5760008160030181905550611d09565b6008600401548160030154611d009190614af2565b81600301819055505b611d306040518060600160405280602581526020016154f56025913960086002015461301c565b611d5660405180606001604052806028815260200161558860289139826003015461301c565b7f838ab28464562786a6c4ab2311964b82fa60bd9b14aa7e856af1f3f18d41a4146008600201548260030154604051611d909291906148d9565b60405180910390a1505050565b6000600560008473ffffffffffffffffffffffffffffffffffffffff1673ffffffffffffffffffffffffffffffffffffffff16815260200190815260200160002060008373ffffffffffffffffffffffffffffffffffffffff1673ffffffffffffffffffffffffffffffffffffffff16815260200190815260200160002060009054906101000a900460ff16905092915050565b611e39612551565b73ffffffffffffffffffffffffffffffffffffffff16611e57610f7d565b73ffffffffffffffffffffffffffffffffffffffff1614611ead576040517f08c379a0000000000000000000000000000000000000000000000000000000008152600401611ea4906147ab565b60405180910390fd5b600073ffffffffffffffffffffffffffffffffffffffff168173ffffffffffffffffffffffffffffffffffffffff161415611f1d576040517f08c379a0000000000000000000000000000000000000000000000000000000008152600401611f149061462b565b60405180910390fd5b611f2681612972565b50565b600f8181548110611f3957600080fd5b906000526020600020016000915090505481565b6000601260003373ffffffffffffffffffffffffffffffffffffffff1673ffffffffffffffffffffffffffffffffffffffff1681526020019081526020016000205414611fcf576040517f08c379a0000000000000000000000000000000000000000000000000000000008152600401611fc6906145eb565b60405180910390fd5b6000611fdb6007612a38565b9050611fe733826130b8565b6040518060c00160405280838152602001600e8481548110612032577f4e487b7100000000000000000000000000000000000000000000000000000000600052603260045260246000fd5b9060005260206000209060060201600101805461204e90614c18565b80601f016020809104026020016040519081016040528092919081815260200182805461207a90614c18565b80156120c75780601f1061209c576101008083540402835291602001916120c7565b820191906000526020600020905b8154815290600101906020018083116120aa57829003601f168201915b50505050508152602001600e848154811061210b577f4e487b7100000000000000000000000000000000000000000000000000000000600052603260045260246000fd5b9060005260206000209060060201600201805461212790614c18565b80601f016020809104026020016040519081016040528092919081815260200182805461215390614c18565b80156121a05780601f10612175576101008083540402835291602001916121a0565b820191906000526020600020905b81548152906001019060200180831161218357829003601f168201915b50505050508152602001600e84815481106121e4577f4e487b7100000000000000000000000000000000000000000000000000000000600052603260045260246000fd5b9060005260206000209060060201600301548152602001600e8481548110612235577f4e487b7100000000000000000000000000000000000000000000000000000000600052603260045260246000fd5b9060005260206000209060060201600401548152602001600e8481548110612286577f4e487b7100000000000000000000000000000000000000000000000000000000600052603260045260246000fd5b906000526020600020906006020160050154815250601160008381526020019081526020016000206000820151816000015560208201518160010190805190602001906122d49291906135fc565b5060408201518160020190805190602001906122f19291906135fc565b50606082015181600301556080820151816004015560a082015181600501559050506123366040518060600160405280602e815260200161551a602e913982846130d6565b80601260003373ffffffffffffffffffffffffffffffffffffffff1673ffffffffffffffffffffffffffffffffffffffff168152602001908152602001600020819055506123846007612465565b7f4bc303fd457a97b4691b9af582ce71868a3d258638c8d4f8c60988a0f0bfb8cd3382846040516123b793929190614366565b60405180910390a15050565b61245f848484846040516024016123dd949392919061444f565b6040516020818303038152906040527f8d142cdd000000000000000000000000000000000000000000000000000000007bffffffffffffffffffffffffffffffffffffffffffffffffffffffff19166020820180517bffffffffffffffffffffffffffffffffffffffffffffffffffffffff8381831617835250505050613175565b50505050565b6001816000016000828254019250508190555050565b60007f01ffc9a7000000000000000000000000000000000000000000000000000000007bffffffffffffffffffffffffffffffffffffffffffffffffffffffff1916827bffffffffffffffffffffffffffffffffffffffffffffffffffffffff1916149050919050565b60008073ffffffffffffffffffffffffffffffffffffffff166002600084815260200190815260200160002060009054906101000a900473ffffffffffffffffffffffffffffffffffffffff1673ffffffffffffffffffffffffffffffffffffffff1614159050919050565b600033905090565b816004600083815260200190815260200160002060006101000a81548173ffffffffffffffffffffffffffffffffffffffff021916908373ffffffffffffffffffffffffffffffffffffffff160217905550808273ffffffffffffffffffffffffffffffffffffffff166125cc83610af8565b73ffffffffffffffffffffffffffffffffffffffff167f8c5be1e5ebec7d5bd14f71427d1e84f3dd0314c0f7b2291e5b200ac8c7c3b92560405160405180910390a45050565b80600f9080519060200190612628929190613682565b505050565b6000612638826124e5565b612677576040517f08c379a000000000000000000000000000000000000000000000000000000000815260040161266e906146eb565b60405180910390fd5b600061268283610af8565b90508073ffffffffffffffffffffffffffffffffffffffff168473ffffffffffffffffffffffffffffffffffffffff1614806126f157508373ffffffffffffffffffffffffffffffffffffffff166126d98461081b565b73ffffffffffffffffffffffffffffffffffffffff16145b8061270257506127018185611d9d565b5b91505092915050565b8273ffffffffffffffffffffffffffffffffffffffff1661272b82610af8565b73ffffffffffffffffffffffffffffffffffffffff1614612781576040517f08c379a00000000000000000000000000000000000000000000000000000000081526004016127789061464b565b60405180910390fd5b600073ffffffffffffffffffffffffffffffffffffffff168273ffffffffffffffffffffffffffffffffffffffff1614156127f1576040517f08c379a00000000000000000000000000000000000000000000000000000000081526004016127e8906146ab565b60405180910390fd5b6127fc83838361319e565b612807600082612559565b6001600360008573ffffffffffffffffffffffffffffffffffffffff1673ffffffffffffffffffffffffffffffffffffffff16815260200190815260200160002060008282546128579190614af2565b925050819055506001600360008473ffffffffffffffffffffffffffffffffffffffff1673ffffffffffffffffffffffffffffffffffffffff16815260200190815260200160002060008282546128ae9190614a11565b92505081905550816002600083815260200190815260200160002060006101000a81548173ffffffffffffffffffffffffffffffffffffffff021916908373ffffffffffffffffffffffffffffffffffffffff160217905550808273ffffffffffffffffffffffffffffffffffffffff168473ffffffffffffffffffffffffffffffffffffffff167fddf252ad1be2c89b69c2b068fc378daa952ba7f163c4a11628f55a4df523b3ef60405160405180910390a461296d8383836131a3565b505050565b6000600660009054906101000a900473ffffffffffffffffffffffffffffffffffffffff16905081600660006101000a81548173ffffffffffffffffffffffffffffffffffffffff021916908373ffffffffffffffffffffffffffffffffffffffff1602179055508173ffffffffffffffffffffffffffffffffffffffff168173ffffffffffffffffffffffffffffffffffffffff167f8be0079c531659141344cd1fd0a4f28419497f9722a3daafe3b4186f6b6457e060405160405180910390a35050565b600081600001549050919050565b8173ffffffffffffffffffffffffffffffffffffffff168373ffffffffffffffffffffffffffffffffffffffff161415612ab5576040517f08c379a0000000000000000000000000000000000000000000000000000000008152600401612aac906146cb565b60405180910390fd5b80600560008573ffffffffffffffffffffffffffffffffffffffff1673ffffffffffffffffffffffffffffffffffffffff16815260200190815260200160002060008473ffffffffffffffffffffffffffffffffffffffff1673ffffffffffffffffffffffffffffffffffffffff16815260200190815260200160002060006101000a81548160ff0219169083151502179055508173ffffffffffffffffffffffffffffffffffffffff168373ffffffffffffffffffffffffffffffffffffffff167f17307eab39ab6107e8899845ad3d59bd9653f200f220920489ca2b5937696c3183604051612ba691906143bf565b60405180910390a3505050565b612bbe84848461270b565b612bca848484846131a8565b612c09576040517f08c379a0000000000000000000000000000000000000000000000000000000008152600401612c009061460b565b60405180910390fd5b50505050565b60606000821415612c57576040518060400160405280600181526020017f30000000000000000000000000000000000000000000000000000000000000008152509050612db7565b600082905060005b60008214612c89578080612c7290614c7b565b915050600a82612c829190614a67565b9150612c5f565b60008167ffffffffffffffff811115612ccb577f4e487b7100000000000000000000000000000000000000000000000000000000600052604160045260246000fd5b6040519080825280601f01601f191660200182016040528015612cfd5781602001600182028036833780820191505090505b5090505b60008514612db057600182612d169190614af2565b9150600a85612d259190614cc4565b6030612d319190614a11565b60f81b818381518110612d6d577f4e487b7100000000000000000000000000000000000000000000000000000000600052603260045260246000fd5b60200101907effffffffffffffffffffffffffffffffffffffffffffffffffffffffffffff1916908160001a905350600a85612da99190614a67565b9450612d01565b8093505050505b919050565b60606000825190506000811415612de55760405180602001604052806000815250915050612f75565b60006003600283612df69190614a11565b612e009190614a67565b6004612e0c9190614a98565b90506000602082612e1d9190614a11565b67ffffffffffffffff811115612e5c577f4e487b7100000000000000000000000000000000000000000000000000000000600052604160045260246000fd5b6040519080825280601f01601f191660200182016040528015612e8e5781602001600182028036833780820191505090505b5090506000604051806060016040528060408152602001615548604091399050600181016020830160005b86811015612f325760038101905062ffffff818a015116603f8160121c168401518060081b905060ff603f83600c1c1686015116810190508060081b905060ff603f8360061c1686015116810190508060081b905060ff603f831686015116810190508060e01b90508084526004840193505050612eb9565b506003860660018114612f4c5760028114612f5c57612f67565b613d3d60f01b6002830352612f67565b603d60f81b60018303525b508484525050819450505050505b919050565b61301684848484604051602401612f9494939291906144a9565b6040516020818303038152906040527fd5cf17d0000000000000000000000000000000000000000000000000000000007bffffffffffffffffffffffffffffffffffffffffffffffffffffffff19166020820180517bffffffffffffffffffffffffffffffffffffffffffffffffffffffff8381831617835250505050613175565b50505050565b6130b4828260405160240161303292919061455d565b6040516020818303038152906040527f9710a9d0000000000000000000000000000000000000000000000000000000007bffffffffffffffffffffffffffffffffffffffffffffffffffffffff19166020820180517bffffffffffffffffffffffffffffffffffffffffffffffffffffffff8381831617835250505050613175565b5050565b6130d282826040518060200160405280600081525061333f565b5050565b6131708383836040516024016130ee9392919061458d565b6040516020818303038152906040527f969cdd03000000000000000000000000000000000000000000000000000000007bffffffffffffffffffffffffffffffffffffffffffffffffffffffff19166020820180517bffffffffffffffffffffffffffffffffffffffffffffffffffffffff8381831617835250505050613175565b505050565b60008151905060006a636f6e736f6c652e6c6f679050602083016000808483855afa5050505050565b505050565b505050565b60006131c98473ffffffffffffffffffffffffffffffffffffffff1661339a565b15613332578373ffffffffffffffffffffffffffffffffffffffff1663150b7a026131f2612551565b8786866040518563ffffffff1660e01b8152600401613214949392919061431a565b602060405180830381600087803b15801561322e57600080fd5b505af192505050801561325f57506040513d601f19601f8201168201806040525081019061325c9190613a38565b60015b6132e2573d806000811461328f576040519150601f19603f3d011682016040523d82523d6000602084013e613294565b606091505b506000815114156132da576040517f08c379a00000000000000000000000000000000000000000000000000000000081526004016132d19061460b565b60405180910390fd5b805181602001fd5b63150b7a0260e01b7bffffffffffffffffffffffffffffffffffffffffffffffffffffffff1916817bffffffffffffffffffffffffffffffffffffffffffffffffffffffff191614915050613337565b600190505b949350505050565b61334983836133bd565b61335660008484846131a8565b613395576040517f08c379a000000000000000000000000000000000000000000000000000000000815260040161338c9061460b565b60405180910390fd5b505050565b6000808273ffffffffffffffffffffffffffffffffffffffff163b119050919050565b600073ffffffffffffffffffffffffffffffffffffffff168273ffffffffffffffffffffffffffffffffffffffff16141561342d576040517f08c379a00000000000000000000000000000000000000000000000000000000081526004016134249061476b565b60405180910390fd5b613436816124e5565b15613476576040517f08c379a000000000000000000000000000000000000000000000000000000000815260040161346d9061466b565b60405180910390fd5b6134826000838361319e565b6001600360008473ffffffffffffffffffffffffffffffffffffffff1673ffffffffffffffffffffffffffffffffffffffff16815260200190815260200160002060008282546134d29190614a11565b92505081905550816002600083815260200190815260200160002060006101000a81548173ffffffffffffffffffffffffffffffffffffffff021916908373ffffffffffffffffffffffffffffffffffffffff160217905550808273ffffffffffffffffffffffffffffffffffffffff16600073ffffffffffffffffffffffffffffffffffffffff167fddf252ad1be2c89b69c2b068fc378daa952ba7f163c4a11628f55a4df523b3ef60405160405180910390a4613593600083836131a3565b5050565b6040518060a0016040528060608152602001606081526020016000815260200160008152602001600081525090565b6040518060c001604052806000815260200160608152602001606081526020016000815260200160008152602001600081525090565b82805461360890614c18565b90600052602060002090601f01602090048101928261362a5760008555613671565b82601f1061364357805160ff1916838001178555613671565b82800160010185558215613671579182015b82811115613670578251825591602001919060010190613655565b5b50905061367e91906136cf565b5090565b8280548282559060005260206000209081019282156136be579160200282015b828111156136bd5782518255916020019190600101906136a2565b5b5090506136cb91906136cf565b5090565b5b808211156136e85760008160009055506001016136d0565b5090565b60006136ff6136fa84614927565b614902565b9050808382526020820190508285602086028201111561371e57600080fd5b60005b8581101561374e5781613734888261383e565b845260208401935060208301925050600181019050613721565b5050509392505050565b600061376b61376684614953565b614902565b90508281526020810184848401111561378357600080fd5b61378e848285614bd6565b509392505050565b6000813590506137a581615498565b92915050565b600082601f8301126137bc57600080fd5b81356137cc8482602086016136ec565b91505092915050565b6000813590506137e4816154af565b92915050565b6000813590506137f9816154c6565b92915050565b60008151905061380e816154c6565b92915050565b600082601f83011261382557600080fd5b8135613835848260208601613758565b91505092915050565b60008135905061384d816154dd565b92915050565b600081519050613862816154dd565b92915050565b60006020828403121561387a57600080fd5b600061388884828501613796565b91505092915050565b600080604083850312156138a457600080fd5b60006138b285828601613796565b92505060206138c385828601613796565b9150509250929050565b6000806000606084860312156138e257600080fd5b60006138f086828701613796565b935050602061390186828701613796565b92505060406139128682870161383e565b9150509250925092565b6000806000806080858703121561393257600080fd5b600061394087828801613796565b945050602061395187828801613796565b93505060406139628782880161383e565b925050606085013567ffffffffffffffff81111561397f57600080fd5b61398b87828801613814565b91505092959194509250565b600080604083850312156139aa57600080fd5b60006139b885828601613796565b92505060206139c9858286016137d5565b9150509250929050565b600080604083850312156139e657600080fd5b60006139f485828601613796565b9250506020613a058582860161383e565b9150509250929050565b600060208284031215613a2157600080fd5b6000613a2f848285016137ea565b91505092915050565b600060208284031215613a4a57600080fd5b6000613a58848285016137ff565b91505092915050565b600060208284031215613a7357600080fd5b6000613a818482850161383e565b91505092915050565b600060208284031215613a9c57600080fd5b6000613aaa84828501613853565b91505092915050565b60008060408385031215613ac657600080fd5b6000613ad48582860161383e565b925050602083013567ffffffffffffffff811115613af157600080fd5b613afd858286016137ab565b9150509250929050565b6000613b1383836140a4565b905092915050565b613b2481614b26565b82525050565b6000613b3582614994565b613b3f81856149c2565b935083602082028501613b5185614984565b8060005b85811015613b8d5784840389528151613b6e8582613b07565b9450613b79836149b5565b925060208a01995050600181019050613b55565b50829750879550505050505092915050565b613ba881614b38565b82525050565b613bb781614b44565b82525050565b6000613bc88261499f565b613bd281856149d3565b9350613be2818560208601614be5565b613beb81614db1565b840191505092915050565b6000613c01826149aa565b613c0b81856149e4565b9350613c1b818560208601614be5565b613c2481614db1565b840191505092915050565b6000613c3a826149aa565b613c4481856149f5565b9350613c54818560208601614be5565b613c5d81614db1565b840191505092915050565b6000613c73826149aa565b613c7d8185614a06565b9350613c8d818560208601614be5565b80840191505092915050565b6000613ca6600b83614a06565b9150613cb182614dc2565b600b82019050919050565b6000613cc9602c836149f5565b9150613cd482614deb565b604082019050919050565b6000613cec6010836149f5565b9150613cf782614e3a565b602082019050919050565b6000613d0f6032836149f5565b9150613d1a82614e63565b604082019050919050565b6000613d326026836149f5565b9150613d3d82614eb2565b604082019050919050565b6000613d556025836149f5565b9150613d6082614f01565b604082019050919050565b6000613d78601c836149f5565b9150613d8382614f50565b602082019050919050565b6000613d9b6027836149f5565b9150613da682614f79565b604082019050919050565b6000613dbe600e83614a06565b9150613dc982614fc8565b600e82019050919050565b6000613de16024836149f5565b9150613dec82614ff1565b604082019050919050565b6000613e046019836149f5565b9150613e0f82615040565b602082019050919050565b6000613e27602c836149f5565b9150613e3282615069565b604082019050919050565b6000613e4a606f83614a06565b9150613e55826150b8565b606f82019050919050565b6000613e6d6038836149f5565b9150613e7882615153565b604082019050919050565b6000613e90602a836149f5565b9150613e9b826151a2565b604082019050919050565b6000613eb36029836149f5565b9150613ebe826151f1565b604082019050919050565b6000613ed6600483614a06565b9150613ee182615240565b600482019050919050565b6000613ef96020836149f5565b9150613f0482615269565b602082019050919050565b6000613f1c602c836149f5565b9150613f2782615292565b604082019050919050565b6000613f3f6020836149f5565b9150613f4a826152e1565b602082019050919050565b6000613f62600a83614a06565b9150613f6d8261530a565b600a82019050919050565b6000613f856021836149f5565b9150613f9082615333565b604082019050919050565b6000613fa8601d83614a06565b9150613fb382615382565b601d82019050919050565b6000613fcb6031836149f5565b9150613fd6826153ab565b604082019050919050565b6000613fee603d83614a06565b9150613ff9826153fa565b603d82019050919050565b6000614011602d83614a06565b915061401c82615449565b602d82019050919050565b600060a08301600083015184820360008601526140448282613bf6565b9150506020830151848203602086015261405e8282613bf6565b915050604083015161407360408601826141d3565b50606083015161408660608601826141d3565b50608083015161409960808601826141d3565b508091505092915050565b600060c0830160008301516140bc60008601826141d3565b50602083015184820360208601526140d48282613bf6565b915050604083015184820360408601526140ee8282613bf6565b915050606083015161410360608601826141d3565b50608083015161411660808601826141d3565b5060a083015161412960a08601826141d3565b508091505092915050565b600060c08301600083015161414c60008601826141d3565b50602083015184820360208601526141648282613bf6565b9150506040830151848203604086015261417e8282613bf6565b915050606083015161419360608601826141d3565b5060808301516141a660808601826141d3565b5060a08301516141b960a08601826141d3565b508091505092915050565b6141cd81614b7a565b82525050565b6141dc81614ba8565b82525050565b6141eb81614ba8565b82525050565b6141fa81614bb2565b82525050565b61420981614bc2565b82525050565b600061421a82613f55565b91506142268289613c68565b915061423182613c99565b915061423d8288613c68565b915061424882613e3d565b91506142548287613c68565b915061425f82613fe1565b915061426b8286613c68565b915061427682613db1565b91506142828285613c68565b915061428d82614004565b91506142998284613c68565b91506142a482613ec9565b9150819050979650505050505050565b60006142bf82613f9b565b91506142cb8284613c68565b915081905092915050565b60006020820190506142eb6000830184613b1b565b92915050565b60006040820190506143066000830185613b1b565b6143136020830184613b1b565b9392505050565b600060808201905061432f6000830187613b1b565b61433c6020830186613b1b565b61434960408301856141e2565b818103606083015261435b8184613bbd565b905095945050505050565b600060608201905061437b6000830186613b1b565b61438860208301856141e2565b61439560408301846141e2565b949350505050565b600060208201905081810360008301526143b78184613b2a565b905092915050565b60006020820190506143d46000830184613b9f565b92915050565b600060a0820190506143ef6000830188613bae565b6143fc6020830187614200565b61440960408301866141c4565b61441660608301856141f1565b61442360808301846141f1565b9695505050505050565b600060208201905081810360008301526144478184613c2f565b905092915050565b600060808201905081810360008301526144698187613c2f565b9050818103602083015261447d8186613c2f565b905061448c60408301856141e2565b818103606083015261449e8184613c2f565b905095945050505050565b600060808201905081810360008301526144c38187613c2f565b905081810360208301526144d78186613c2f565b90506144e660408301856141e2565b6144f360608301846141e2565b95945050505050565b600060a08201905081810360008301526145168188613c2f565b9050818103602083015261452a8187613c2f565b905061453960408301866141e2565b61454660608301856141e2565b61455360808301846141e2565b9695505050505050565b600060408201905081810360008301526145778185613c2f565b905061458660208301846141e2565b9392505050565b600060608201905081810360008301526145a78186613c2f565b90506145b660208301856141e2565b6145c360408301846141e2565b949350505050565b600060208201905081810360008301526145e481613cbc565b9050919050565b6000602082019050818103600083015261460481613cdf565b9050919050565b6000602082019050818103600083015261462481613d02565b9050919050565b6000602082019050818103600083015261464481613d25565b9050919050565b6000602082019050818103600083015261466481613d48565b9050919050565b6000602082019050818103600083015261468481613d6b565b9050919050565b600060208201905081810360008301526146a481613d8e565b9050919050565b600060208201905081810360008301526146c481613dd4565b9050919050565b600060208201905081810360008301526146e481613df7565b9050919050565b6000602082019050818103600083015261470481613e1a565b9050919050565b6000602082019050818103600083015261472481613e60565b9050919050565b6000602082019050818103600083015261474481613e83565b9050919050565b6000602082019050818103600083015261476481613ea6565b9050919050565b6000602082019050818103600083015261478481613eec565b9050919050565b600060208201905081810360008301526147a481613f0f565b9050919050565b600060208201905081810360008301526147c481613f32565b9050919050565b600060208201905081810360008301526147e481613f78565b9050919050565b6000602082019050818103600083015261480481613fbe565b9050919050565b600060208201905081810360008301526148258184614027565b905092915050565b600060208201905081810360008301526148478184614134565b905092915050565b600060208201905061486460008301846141e2565b92915050565b600060c08201905061487f60008301896141e2565b81810360208301526148918188613c2f565b905081810360408301526148a58187613c2f565b90506148b460608301866141e2565b6148c160808301856141e2565b6148ce60a08301846141e2565b979650505050505050565b60006040820190506148ee60008301856141e2565b6148fb60208301846141e2565b9392505050565b600061490c61491d565b90506149188282614c4a565b919050565b6000604051905090565b600067ffffffffffffffff82111561494257614941614d82565b5b602082029050602081019050919050565b600067ffffffffffffffff82111561496e5761496d614d82565b5b61497782614db1565b9050602081019050919050565b6000819050602082019050919050565b600081519050919050565b600081519050919050565b600081519050919050565b6000602082019050919050565b600082825260208201905092915050565b600082825260208201905092915050565b600082825260208201905092915050565b600082825260208201905092915050565b600081905092915050565b6000614a1c82614ba8565b9150614a2783614ba8565b9250827fffffffffffffffffffffffffffffffffffffffffffffffffffffffffffffffff03821115614a5c57614a5b614cf5565b5b828201905092915050565b6000614a7282614ba8565b9150614a7d83614ba8565b925082614a8d57614a8c614d24565b5b828204905092915050565b6000614aa382614ba8565b9150614aae83614ba8565b9250817fffffffffffffffffffffffffffffffffffffffffffffffffffffffffffffffff0483118215151615614ae757614ae6614cf5565b5b828202905092915050565b6000614afd82614ba8565b9150614b0883614ba8565b925082821015614b1b57614b1a614cf5565b5b828203905092915050565b6000614b3182614b88565b9050919050565b60008115159050919050565b6000819050919050565b60007fffffffff0000000000000000000000000000000000000000000000000000000082169050919050565b600061ffff82169050919050565b600073ffffffffffffffffffffffffffffffffffffffff82169050919050565b6000819050919050565b600063ffffffff82169050919050565b600067ffffffffffffffff82169050919050565b82818337600083830152505050565b60005b83811015614c03578082015181840152602081019050614be8565b83811115614c12576000848401525b50505050565b60006002820490506001821680614c3057607f821691505b60208210811415614c4457614c43614d53565b5b50919050565b614c5382614db1565b810181811067ffffffffffffffff82111715614c7257614c71614d82565b5b80604052505050565b6000614c8682614ba8565b91507fffffffffffffffffffffffffffffffffffffffffffffffffffffffffffffffff821415614cb957614cb8614cf5565b5b600182019050919050565b6000614ccf82614ba8565b9150614cda83614ba8565b925082614cea57614ce9614d24565b5b828206905092915050565b7f4e487b7100000000000000000000000000000000000000000000000000000000600052601160045260246000fd5b7f4e487b7100000000000000000000000000000000000000000000000000000000600052601260045260246000fd5b7f4e487b7100000000000000000000000000000000000000000000000000000000600052602260045260246000fd5b7f4e487b7100000000000000000000000000000000000000000000000000000000600052604160045260246000fd5b6000601f19601f8301169050919050565b7f202d2d204e465420233a20000000000000000000000000000000000000000000600082015250565b7f4572726f723a20636861726163746572206d757374206861766520485020746f60008201527f2061747461636b20626f73730000000000000000000000000000000000000000602082015250565b7f414c52454144595f4f574e535f4e465400000000000000000000000000000000600082015250565b7f4552433732313a207472616e7366657220746f206e6f6e20455243373231526560008201527f63656976657220696d706c656d656e7465720000000000000000000000000000602082015250565b7f4f776e61626c653a206e6577206f776e657220697320746865207a65726f206160008201527f6464726573730000000000000000000000000000000000000000000000000000602082015250565b7f4552433732313a207472616e736665722066726f6d20696e636f72726563742060008201527f6f776e6572000000000000000000000000000000000000000000000000000000602082015250565b7f4552433732313a20746f6b656e20616c7265616479206d696e74656400000000600082015250565b7f4572726f723a20626f7373206d757374206861766520485020746f206174746160008201527f636b20626f737300000000000000000000000000000000000000000000000000602082015250565b7f2c20226d61785f76616c7565223a000000000000000000000000000000000000600082015250565b7f4552433732313a207472616e7366657220746f20746865207a65726f2061646460008201527f7265737300000000000000000000000000000000000000000000000000000000602082015250565b7f4552433732313a20617070726f766520746f2063616c6c657200000000000000600082015250565b7f4552433732313a206f70657261746f7220717565727920666f72206e6f6e657860008201527f697374656e7420746f6b656e0000000000000000000000000000000000000000602082015250565b7f222c20226465736372697074696f6e223a20225468697320697320616e204e4660008201527f542074686174206c6574732070656f706c6520706c617920617320612073747260208201527f6f6e67204b617070612057617272696f7220696e20746865204d65746176657260408201527f7365222c2022696d616765223a20220000000000000000000000000000000000606082015250565b7f4552433732313a20617070726f76652063616c6c6572206973206e6f74206f7760008201527f6e6572206e6f7220617070726f76656420666f7220616c6c0000000000000000602082015250565b7f4552433732313a2062616c616e636520717565727920666f7220746865207a6560008201527f726f206164647265737300000000000000000000000000000000000000000000602082015250565b7f4552433732313a206f776e657220717565727920666f72206e6f6e657869737460008201527f656e7420746f6b656e0000000000000000000000000000000000000000000000602082015250565b7f7d205d7d00000000000000000000000000000000000000000000000000000000600082015250565b7f4552433732313a206d696e7420746f20746865207a65726f2061646472657373600082015250565b7f4552433732313a20617070726f76656420717565727920666f72206e6f6e657860008201527f697374656e7420746f6b656e0000000000000000000000000000000000000000602082015250565b7f4f776e61626c653a2063616c6c6572206973206e6f7420746865206f776e6572600082015250565b7f7b226e616d65223a202200000000000000000000000000000000000000000000600082015250565b7f4552433732313a20617070726f76616c20746f2063757272656e74206f776e6560008201527f7200000000000000000000000000000000000000000000000000000000000000602082015250565b7f646174613a6170706c69636174696f6e2f6a736f6e3b6261736536342c000000600082015250565b7f4552433732313a207472616e736665722063616c6c6572206973206e6f74206f60008201527f776e6572206e6f7220617070726f766564000000000000000000000000000000602082015250565b7f222c202261747472696275746573223a205b207b202274726169745f7479706560008201527f223a20224865616c746820506f696e7473222c202276616c7565223a20000000602082015250565b7f7d2c207b202274726169745f74797065223a202241747461636b2044616d616760008201527f65222c202276616c7565223a2000000000000000000000000000000000000000602082015250565b6154a181614b26565b81146154ac57600080fd5b50565b6154b881614b38565b81146154c357600080fd5b50565b6154cf81614b4e565b81146154da57600080fd5b50565b6154e681614ba8565b81146154f157600080fd5b5056fe506c617965722061747461636b656420626f73732e206e657720626f73732068703a2025734d696e746564204e465420772f20746f6b656e496420257320616e6420636861726163746572696e6465782025734142434445464748494a4b4c4d4e4f505152535455565758595a6162636465666768696a6b6c6d6e6f707172737475767778797a303132333435363738392b2f426f73732061747461636b656420706c617965722e204e657720706c617965722068703a2025730a0a506c6179657220772f206368617261637465722025732061626f757420746f2061747461636b2e2048617320257320485020616e64202573204144a2646970667358221220e47aeddc48cb679dd1cc6bc9759d9738a92eb51d958d2559e1d1cef9f04772df64736f6c63430008040033446f6e6520696e697469616c697a696e6720257320772f2048502025732c20696d67202573446f6e6520696e697469616c697a696e6720626f737320257320772f2048502025732c20696d67202573",
  "linkReferences": {},
  "deployedLinkReferences": {}
}